{
  "contractName": "Battleships",
  "abi": [
    {
      "constant": true,
      "inputs": [],
      "name": "myString",
      "outputs": [
        {
          "name": "",
          "type": "string"
        }
      ],
      "payable": false,
      "stateMutability": "view",
      "type": "function",
      "signature": "0x492bfa18"
    },
    {
      "payable": true,
      "stateMutability": "payable",
      "type": "fallback"
    },
    {
      "anonymous": false,
      "inputs": [
        {
          "indexed": true,
          "name": "gameIdx",
          "type": "uint32"
        }
      ],
      "name": "GameCreated",
      "type": "event",
      "signature": "0xe086303ca1b48642b0b5ba69da2571f5e80c0316d829fef02a512f986d2dd97d"
    },
    {
      "anonymous": false,
      "inputs": [
        {
          "indexed": true,
          "name": "gameIdx",
          "type": "uint32"
        },
        {
          "indexed": true,
          "name": "opponent",
          "type": "address"
        }
      ],
      "name": "GameAccepted",
      "type": "event",
      "signature": "0xefe144453900c4d0cd4aef4f468771772ebc548b1253de88ff1a1291b7a57850"
    },
    {
      "anonymous": false,
      "inputs": [
        {
          "indexed": true,
          "name": "gameIdx",
          "type": "uint32"
        },
        {
          "indexed": true,
          "name": "opponent",
          "type": "address"
        }
      ],
      "name": "GameStarted",
      "type": "event",
      "signature": "0x6d8a1d2dfca1665cabe339d00b017fc53268dbd538c20c3cefc2ce4076ff928a"
    },
    {
      "anonymous": false,
      "inputs": [
        {
          "indexed": true,
          "name": "gameIdx",
          "type": "uint32"
        },
        {
          "indexed": true,
          "name": "opponent",
          "type": "address"
        }
      ],
      "name": "PositionMarked",
      "type": "event",
      "signature": "0x7c1c0c6b1708045c68283431dcc9a3e573d5913b92a88cb614662851d4b67cfe"
    },
    {
      "anonymous": false,
      "inputs": [
        {
          "indexed": true,
          "name": "gameIdx",
          "type": "uint32"
        },
        {
          "indexed": true,
          "name": "opponent",
          "type": "address"
        }
      ],
      "name": "GameEnded",
      "type": "event",
      "signature": "0x429f8719638cba0a0c2c2f5abdaed73702d21228925bbda0ac0a575bbfed444b"
    },
    {
      "constant": true,
      "inputs": [],
      "name": "getOpenGames",
      "outputs": [
        {
          "name": "",
          "type": "uint32[]"
        }
      ],
      "payable": false,
      "stateMutability": "view",
      "type": "function",
      "signature": "0xe75d7e3e"
    },
    {
      "constant": true,
      "inputs": [
        {
          "name": "gameIdx",
          "type": "uint32"
        }
      ],
      "name": "getGameInfo",
      "outputs": [
        {
          "name": "gameIndex",
          "type": "uint32"
        },
        {
          "name": "cells",
          "type": "uint8[]"
        },
        {
          "name": "status",
          "type": "uint8"
        },
        {
          "name": "amount",
          "type": "uint256"
        },
        {
          "name": "nick1",
          "type": "string"
        },
        {
          "name": "nick2",
          "type": "string"
        }
      ],
      "payable": false,
      "stateMutability": "view",
      "type": "function",
      "signature": "0x848a2351"
    },
    {
      "constant": true,
      "inputs": [
        {
          "name": "gameIdx",
          "type": "uint32"
        }
      ],
      "name": "getGameTimestamp",
      "outputs": [
        {
          "name": "lastTransaction",
          "type": "uint256"
        }
      ],
      "payable": false,
      "stateMutability": "view",
      "type": "function",
      "signature": "0x351638b0"
    },
    {
      "constant": true,
      "inputs": [
        {
          "name": "gameIdx",
          "type": "uint32"
        }
      ],
      "name": "getGamePlayers",
      "outputs": [
        {
          "name": "player1",
          "type": "address"
        },
        {
          "name": "player2",
          "type": "address"
        }
      ],
      "payable": false,
      "stateMutability": "view",
      "type": "function",
      "signature": "0x0cc99ca2"
    },
    {
      "constant": false,
      "inputs": [
        {
          "name": "randomNumberHash",
          "type": "bytes32"
        },
        {
          "name": "nick",
          "type": "string"
        }
      ],
      "name": "createGame",
      "outputs": [
        {
          "name": "gameIdx",
          "type": "uint32"
        }
      ],
      "payable": true,
      "stateMutability": "payable",
      "type": "function",
      "signature": "0x22719305"
    },
    {
      "constant": false,
      "inputs": [
        {
          "name": "gameIdx",
          "type": "uint32"
        },
        {
          "name": "randomNumber",
          "type": "uint8"
        },
        {
          "name": "nick",
          "type": "string"
        }
      ],
      "name": "acceptGame",
      "outputs": [],
      "payable": true,
      "stateMutability": "payable",
      "type": "function",
      "signature": "0xa97d07b0"
    },
    {
      "constant": false,
      "inputs": [
        {
          "name": "gameIdx",
          "type": "uint32"
        },
        {
          "name": "cell",
          "type": "uint8"
        }
      ],
      "name": "markPosition",
      "outputs": [],
      "payable": false,
      "stateMutability": "nonpayable",
      "type": "function",
      "signature": "0xb60d0e9b"
    },
    {
      "constant": false,
      "inputs": [
        {
          "name": "gameIdx",
          "type": "uint32"
        }
      ],
      "name": "withdraw",
      "outputs": [],
      "payable": false,
      "stateMutability": "nonpayable",
      "type": "function",
      "signature": "0xaa9224cd"
    },
    {
      "constant": true,
      "inputs": [
        {
          "name": "randomNumber",
          "type": "uint8"
        },
        {
          "name": "salt",
          "type": "string"
        }
      ],
      "name": "saltedHash",
      "outputs": [
        {
          "name": "",
          "type": "bytes32"
        }
      ],
      "payable": false,
      "stateMutability": "pure",
      "type": "function",
      "signature": "0x6474c5b8"
    },
    {
      "constant": false,
      "inputs": [
        {
          "name": "x",
          "type": "string"
        }
      ],
      "name": "set",
      "outputs": [],
      "payable": false,
      "stateMutability": "nonpayable",
      "type": "function",
      "signature": "0x4ed3885e"
    },
    {
      "constant": true,
      "inputs": [
        {
          "name": "proof",
          "type": "bytes32[]"
        },
        {
          "name": "root",
          "type": "bytes32"
        },
        {
          "name": "leaf",
          "type": "bytes32"
        }
      ],
      "name": "checkProof",
      "outputs": [
        {
          "name": "",
          "type": "bool"
        }
      ],
      "payable": false,
      "stateMutability": "pure",
      "type": "function",
      "signature": "0x72a52851"
    },
    {
      "constant": false,
      "inputs": [
        {
          "name": "gameIdx",
          "type": "uint32"
        },
        {
          "name": "revealedRandomNumber",
          "type": "uint8"
        },
        {
          "name": "revealedSalt",
          "type": "string"
        }
      ],
      "name": "confirmGame",
      "outputs": [],
      "payable": false,
      "stateMutability": "nonpayable",
      "type": "function",
      "signature": "0x43b95d7b"
    },
    {
      "constant": false,
      "inputs": [
        {
          "name": "rows",
          "type": "uint8[]"
        },
        {
          "name": "cols",
          "type": "uint8[]"
        }
      ],
      "name": "validateDesk",
      "outputs": [
        {
          "name": "",
          "type": "bool"
        }
      ],
      "payable": false,
      "stateMutability": "nonpayable",
      "type": "function",
      "signature": "0x8e839527"
    },
    {
      "constant": false,
      "inputs": [
        {
          "name": "gameIdx",
          "type": "uint256"
        },
        {
          "name": "rows",
          "type": "uint8[]"
        },
        {
          "name": "cols",
          "type": "uint8[]"
        }
      ],
      "name": "playerReady",
      "outputs": [],
      "payable": false,
      "stateMutability": "nonpayable",
      "type": "function",
      "signature": "0xc27db794"
    }
  ],
  "bytecode": "0x60806040526040805190810160405280600b81526020017f48656c6c6f20576f726c64000000000000000000000000000000000000000000815250600390805190602001906200005192919062000066565b503480156200005f57600080fd5b5062000115565b828054600181600116156101000203166002900490600052602060002090601f016020900481019282601f10620000a957805160ff1916838001178555620000da565b82800160010185558215620000da579182015b82811115620000d9578251825591602001919060010190620000bc565b5b509050620000e99190620000ed565b5090565b6200011291905b808211156200010e576000816000905550600101620000f4565b5090565b90565b61223280620001256000396000f3fe6080604052600436106100db576000357c0100000000000000000000000000000000000000000000000000000000900463ffffffff1680630cc99ca2146100e05780632271930514610194578063351638b01461027957806343b95d7b146102ce578063492bfa18146103b35780634ed3885e146104435780636474c5b81461050b57806372a52851146105f4578063848a2351146106e55780638e8395271461087a578063a97d07b0146109eb578063aa9224cd14610ac3578063b60d0e9b14610b04578063c27db79414610b52578063e75d7e3e14610cb5575b600080fd5b3480156100ec57600080fd5b5061011f6004803603602081101561010357600080fd5b81019080803563ffffffff169060200190929190505050610d21565b604051808373ffffffffffffffffffffffffffffffffffffffff1673ffffffffffffffffffffffffffffffffffffffff1681526020018273ffffffffffffffffffffffffffffffffffffffff1673ffffffffffffffffffffffffffffffffffffffff1681526020019250505060405180910390f35b610257600480360360408110156101aa57600080fd5b8101908080359060200190929190803590602001906401000000008111156101d157600080fd5b8201836020820111156101e357600080fd5b8035906020019184600183028401116401000000008311171561020557600080fd5b91908080601f016020809104026020016040519081016040528093929190818152602001838380828437600081840152601f19601f820116905080830192505050505050509192919290505050610dd1565b604051808263ffffffff1663ffffffff16815260200191505060405180910390f35b34801561028557600080fd5b506102b86004803603602081101561029c57600080fd5b81019080803563ffffffff169060200190929190505050611154565b6040518082815260200191505060405180910390f35b3480156102da57600080fd5b506103b1600480360360608110156102f157600080fd5b81019080803563ffffffff169060200190929190803560ff1690602001909291908035906020019064010000000081111561032b57600080fd5b82018360208201111561033d57600080fd5b8035906020019184600183028401116401000000008311171561035f57600080fd5b91908080601f016020809104026020016040519081016040528093929190818152602001838380828437600081840152601f19601f820116905080830192505050505050509192919290505050611180565b005b3480156103bf57600080fd5b506103c8611699565b6040518080602001828103825283818151815260200191508051906020019080838360005b838110156104085780820151818401526020810190506103ed565b50505050905090810190601f1680156104355780820380516001836020036101000a031916815260200191505b509250505060405180910390f35b34801561044f57600080fd5b506105096004803603602081101561046657600080fd5b810190808035906020019064010000000081111561048357600080fd5b82018360208201111561049557600080fd5b803590602001918460018302840111640100000000831117156104b757600080fd5b91908080601f016020809104026020016040519081016040528093929190818152602001838380828437600081840152601f19601f820116905080830192505050505050509192919290505050611737565b005b34801561051757600080fd5b506105de6004803603604081101561052e57600080fd5b81019080803560ff1690602001909291908035906020019064010000000081111561055857600080fd5b82018360208201111561056a57600080fd5b8035906020019184600183028401116401000000008311171561058c57600080fd5b91908080601f016020809104026020016040519081016040528093929190818152602001838380828437600081840152601f19601f820116905080830192505050505050509192919290505050611751565b6040518082815260200191505060405180910390f35b34801561060057600080fd5b506106cb6004803603606081101561061757600080fd5b810190808035906020019064010000000081111561063457600080fd5b82018360208201111561064657600080fd5b8035906020019184602083028401116401000000008311171561066857600080fd5b919080806020026020016040519081016040528093929190818152602001838360200280828437600081840152601f19601f8201169050808301925050505050505091929192908035906020019092919080359060200190929190505050611874565b604051808215151515815260200191505060405180910390f35b3480156106f157600080fd5b506107246004803603602081101561070857600080fd5b81019080803563ffffffff169060200190929190505050611931565b604051808763ffffffff1663ffffffff168152602001806020018660ff1660ff1681526020018581526020018060200180602001848103845289818151815260200191508051906020019060200280838360005b83811015610793578082015181840152602081019050610778565b50505050905001848103835286818151815260200191508051906020019080838360005b838110156107d25780820151818401526020810190506107b7565b50505050905090810190601f1680156107ff5780820380516001836020036101000a031916815260200191505b50848103825285818151815260200191508051906020019080838360005b8381101561083857808201518184015260208101905061081d565b50505050905090810190601f1680156108655780820380516001836020036101000a031916815260200191505b50995050505050505050505060405180910390f35b34801561088657600080fd5b506109d16004803603604081101561089d57600080fd5b81019080803590602001906401000000008111156108ba57600080fd5b8201836020820111156108cc57600080fd5b803590602001918460208302840111640100000000831117156108ee57600080fd5b919080806020026020016040519081016040528093929190818152602001838360200280828437600081840152601f19601f8201169050808301925050505050505091929192908035906020019064010000000081111561094e57600080fd5b82018360208201111561096057600080fd5b8035906020019184602083028401116401000000008311171561098257600080fd5b919080806020026020016040519081016040528093929190818152602001838360200280828437600081840152601f19601f820116905080830192505050505050509192919290505050611c0a565b604051808215151515815260200191505060405180910390f35b610ac160048036036060811015610a0157600080fd5b81019080803563ffffffff169060200190929190803560ff16906020019092919080359060200190640100000000811115610a3b57600080fd5b820183602082011115610a4d57600080fd5b80359060200191846001830284011164010000000083111715610a6f57600080fd5b91908080601f016020809104026020016040519081016040528093929190818152602001838380828437600081840152601f19601f820116905080830192505050505050509192919290505050611c12565b005b348015610acf57600080fd5b50610b0260048036036020811015610ae657600080fd5b81019080803563ffffffff169060200190929190505050612094565b005b348015610b1057600080fd5b50610b5060048036036040811015610b2757600080fd5b81019080803563ffffffff169060200190929190803560ff169060200190929190505050612099565b005b348015610b5e57600080fd5b50610cb360048036036060811015610b7557600080fd5b810190808035906020019092919080359060200190640100000000811115610b9c57600080fd5b820183602082011115610bae57600080fd5b80359060200191846020830284011164010000000083111715610bd057600080fd5b919080806020026020016040519081016040528093929190818152602001838360200280828437600081840152601f19601f82011690508083019250505050505050919291929080359060200190640100000000811115610c3057600080fd5b820183602082011115610c4257600080fd5b80359060200191846020830284011164010000000083111715610c6457600080fd5b919080806020026020016040519081016040528093929190818152602001838360200280828437600081840152601f19601f82011690508083019250505050505050919291929050505061209e565b005b348015610cc157600080fd5b50610cca6120a3565b6040518080602001828103825283818151815260200191508051906020019060200280838360005b83811015610d0d578082015181840152602081019050610cf2565b505050509050019250505060405180910390f35b600080600160008463ffffffff1663ffffffff1681526020019081526020016000206005016000600281101515610d5457fe5b0160009054906101000a900473ffffffffffffffffffffffffffffffffffffffff16600160008563ffffffff1663ffffffff1681526020019081526020016000206005016001600281101515610da657fe5b0160009054906101000a900473ffffffffffffffffffffffffffffffffffffffff1691509150915091565b6000600260009054906101000a900463ffffffff1663ffffffff166001600260009054906101000a900463ffffffff160163ffffffff16111515610e1457600080fd5b60008054905060016000600260009054906101000a900463ffffffff1663ffffffff1663ffffffff16815260200190815260200160002060000160006101000a81548163ffffffff021916908363ffffffff1602179055508260016000600260009054906101000a900463ffffffff1663ffffffff1663ffffffff168152602001908152602001600020600c01819055503460016000600260009054906101000a900463ffffffff1663ffffffff1663ffffffff168152602001908152602001600020600301819055508160016000600260009054906101000a900463ffffffff1663ffffffff1663ffffffff1681526020019081526020016000206008016000600281101515610f2157fe5b019080519060200190610f35929190612127565b503360016000600260009054906101000a900463ffffffff1663ffffffff1663ffffffff1681526020019081526020016000206005016000600281101515610f7957fe5b0160006101000a81548173ffffffffffffffffffffffffffffffffffffffff021916908373ffffffffffffffffffffffffffffffffffffffff1602179055504260016000600260009054906101000a900463ffffffff1663ffffffff1663ffffffff168152602001908152602001600020600a0181905550600260009054906101000a900463ffffffff1660016000600260009054906101000a900463ffffffff1663ffffffff1663ffffffff16815260200190815260200160002060040160006101000a81548163ffffffff021916908363ffffffff1602179055506000600260009054906101000a900463ffffffff16908060018154018082558091505090600182039060005260206000209060089182820401919006600402909192909190916101000a81548163ffffffff021916908363ffffffff16021790555050600260009054906101000a900463ffffffff169050600260009054906101000a900463ffffffff1663ffffffff167fe086303ca1b48642b0b5ba69da2571f5e80c0316d829fef02a512f986d2dd97d60405160405180910390a26002600081819054906101000a900463ffffffff168092919060010191906101000a81548163ffffffff021916908363ffffffff1602179055505092915050565b6000600160008363ffffffff1663ffffffff168152602001908152602001600020600a01549050919050565b600260009054906101000a900463ffffffff1663ffffffff168363ffffffff161015156111ac57600080fd5b3373ffffffffffffffffffffffffffffffffffffffff16600160008563ffffffff1663ffffffff16815260200190815260200160002060050160006002811015156111f357fe5b0160009054906101000a900473ffffffffffffffffffffffffffffffffffffffff1673ffffffffffffffffffffffffffffffffffffffff1614151561123757600080fd5b600073ffffffffffffffffffffffffffffffffffffffff16600160008563ffffffff1663ffffffff168152602001908152602001600020600501600160028110151561127f57fe5b0160009054906101000a900473ffffffffffffffffffffffffffffffffffffffff1673ffffffffffffffffffffffffffffffffffffffff16141515156112c457600080fd5b6000600160008563ffffffff1663ffffffff16815260200190815260200160002060020160009054906101000a900460ff1660ff1614151561130557600080fd5b60006113118383611751565b9050600160008563ffffffff1663ffffffff168152602001908152602001600020600c01548114151561146557600c600160008663ffffffff1663ffffffff16815260200190815260200160002060020160006101000a81548160ff021916908360ff1602179055503373ffffffffffffffffffffffffffffffffffffffff168463ffffffff167f429f8719638cba0a0c2c2f5abdaed73702d21228925bbda0ac0a575bbfed444b60405160405180910390a3600160008563ffffffff1663ffffffff16815260200190815260200160002060050160016002811015156113f457fe5b0160009054906101000a900473ffffffffffffffffffffffffffffffffffffffff1673ffffffffffffffffffffffffffffffffffffffff168463ffffffff167f429f8719638cba0a0c2c2f5abdaed73702d21228925bbda0ac0a575bbfed444b60405160405180910390a350611694565b42600160008663ffffffff1663ffffffff168152602001908152602001600020600a01819055506005600160008663ffffffff1663ffffffff16815260200190815260200160002060020160006101000a81548160ff021916908360ff160217905550600060018060008763ffffffff1663ffffffff168152602001908152602001600020600d0160009054906101000a900460ff1685181660ff1614156115ce5760018060008663ffffffff1663ffffffff16815260200190815260200160002060070181905550600160008563ffffffff1663ffffffff168152602001908152602001600020600501600160028110151561155e57fe5b0160009054906101000a900473ffffffffffffffffffffffffffffffffffffffff1673ffffffffffffffffffffffffffffffffffffffff168463ffffffff167f6d8a1d2dfca1665cabe339d00b017fc53268dbd538c20c3cefc2ce4076ff928a60405160405180910390a3611692565b6002600160008663ffffffff1663ffffffff16815260200190815260200160002060070181905550600160008563ffffffff1663ffffffff168152602001908152602001600020600501600160028110151561162657fe5b0160009054906101000a900473ffffffffffffffffffffffffffffffffffffffff1673ffffffffffffffffffffffffffffffffffffffff168463ffffffff167f6d8a1d2dfca1665cabe339d00b017fc53268dbd538c20c3cefc2ce4076ff928a60405160405180910390a35b505b505050565b60038054600181600116156101000203166002900480601f01602080910402602001604051908101604052809291908181526020018280546001816001161561010002031660029004801561172f5780601f106117045761010080835404028352916020019161172f565b820191906000526020600020905b81548152906001019060200180831161171257829003601f168201915b505050505081565b806003908051906020019061174d929190612127565b5050565b600073__LibString_____________________________636474c5b884846040518363ffffffff167c0100000000000000000000000000000000000000000000000000000000028152600401808360ff1660ff16815260200180602001828103825283818151815260200191508051906020019080838360005b838110156117e65780820151818401526020810190506117cb565b50505050905090810190601f1680156118135780820380516001836020036101000a031916815260200191505b50935050505060206040518083038186803b15801561183157600080fd5b505af4158015611845573d6000803e3d6000fd5b505050506040513d602081101561185b57600080fd5b8101908080519060200190929190505050905092915050565b60008082905060008090505b8551811015611923576000868281518110151561189957fe5b906020019060200201519050808310156118e35782816040516020018083815260200182815260200192505050604051602081830303815290604052805190602001209250611915565b808360405160200180838152602001828152602001925050506040516020818303038152906040528051906020012092505b508080600101915050611880565b508381149150509392505050565b60006060600080606080600160008863ffffffff1663ffffffff16815260200190815260200160002060040160009054906101000a900463ffffffff16600160008963ffffffff1663ffffffff168152602001908152602001600020600101600160008a63ffffffff1663ffffffff16815260200190815260200160002060020160009054906101000a900460ff16600160008b63ffffffff1663ffffffff16815260200190815260200160002060030154600160008c63ffffffff1663ffffffff1681526020019081526020016000206008016000600281101515611a1357fe5b01600160008d63ffffffff1663ffffffff1681526020019081526020016000206008016001600281101515611a4457fe5b0184805480602002602001604051908101604052809291908181526020018280548015611ab657602002820191906000526020600020906000905b82829054906101000a900460ff1660ff1681526020019060010190602082600001049283019260010382029150808411611a7f5790505b50505050509450818054600181600116156101000203166002900480601f016020809104026020016040519081016040528092919081815260200182805460018160011615610100020316600290048015611b525780601f10611b2757610100808354040283529160200191611b52565b820191906000526020600020905b815481529060010190602001808311611b3557829003601f168201915b50505050509150808054600181600116156101000203166002900480601f016020809104026020016040519081016040528092919081815260200182805460018160011615610100020316600290048015611bee5780601f10611bc357610100808354040283529160200191611bee565b820191906000526020600020905b815481529060010190602001808311611bd157829003601f168201915b5050505050905095509550955095509550955091939550919395565b600092915050565b600260009054906101000a900463ffffffff1663ffffffff168363ffffffff16101515611c3e57600080fd5b600073ffffffffffffffffffffffffffffffffffffffff16600160008563ffffffff1663ffffffff1681526020019081526020016000206005016000600281101515611c8657fe5b0160009054906101000a900473ffffffffffffffffffffffffffffffffffffffff1673ffffffffffffffffffffffffffffffffffffffff1614151515611ccb57600080fd5b600160008463ffffffff1663ffffffff1681526020019081526020016000206003015434141515611cfb57600080fd5b600073ffffffffffffffffffffffffffffffffffffffff16600160008563ffffffff1663ffffffff1681526020019081526020016000206005016001600281101515611d4357fe5b0160009054906101000a900473ffffffffffffffffffffffffffffffffffffffff1673ffffffffffffffffffffffffffffffffffffffff16141515611d8757600080fd5b6000600160008563ffffffff1663ffffffff16815260200190815260200160002060020160009054906101000a900460ff1660ff16141515611dc857600080fd5b81600160008563ffffffff1663ffffffff168152602001908152602001600020600d0160006101000a81548160ff021916908360ff16021790555080600160008563ffffffff1663ffffffff1681526020019081526020016000206008016001600281101515611e3457fe5b019080519060200190611e48929190612127565b5033600160008563ffffffff1663ffffffff1681526020019081526020016000206005016001600281101515611e7a57fe5b0160006101000a81548173ffffffffffffffffffffffffffffffffffffffff021916908373ffffffffffffffffffffffffffffffffffffffff16021790555042600160008563ffffffff1663ffffffff168152602001908152602001600020600a0181905550600160008463ffffffff1663ffffffff1681526020019081526020016000206005016000600281101515611f1057fe5b0160009054906101000a900473ffffffffffffffffffffffffffffffffffffffff1673ffffffffffffffffffffffffffffffffffffffff168363ffffffff167fefe144453900c4d0cd4aef4f468771772ebc548b1253de88ff1a1291b7a5785060405160405180910390a36000600160008563ffffffff1663ffffffff16815260200190815260200160002060000160009054906101000a900463ffffffff1690506000600160008054905003815481101515611fc957fe5b90600052602060002090600891828204019190066004029054906101000a900463ffffffff1660008263ffffffff1681548110151561200457fe5b90600052602060002090600891828204019190066004026101000a81548163ffffffff021916908363ffffffff16021790555080600160008663ffffffff1663ffffffff16815260200190815260200160002060000160006101000a81548163ffffffff021916908363ffffffff160217905550600080548091906001900361208d91906121a7565b5050505050565b600080fd5b600080fd5b505050565b6060600080548060200260200160405190810160405280929190818152602001828054801561211d57602002820191906000526020600020906000905b82829054906101000a900463ffffffff1663ffffffff16815260200190600401906020826003010492830192600103820291508084116120e05790505b5050505050905090565b828054600181600116156101000203166002900490600052602060002090601f016020900481019282601f1061216857805160ff1916838001178555612196565b82800160010185558215612196579182015b8281111561219557825182559160200191906001019061217a565b5b5090506121a391906121e1565b5090565b8154818355818111156121dc5760070160089004816007016008900483600052602060002091820191016121db91906121e1565b5b505050565b61220391905b808211156121ff5760008160009055506001016121e7565b5090565b9056fea165627a7a7230582048723a59394b0be01c45566c3263833255c492e59eff35bfe18e2d17ff957cd20029",
  "source": "pragma solidity ^0.5.0;\n\nimport \"./LibString.sol\";\n\ncontract Battleships {\n\n\t// Events\n\n    event GameCreated(uint32 indexed gameIdx);\n    event GameAccepted(uint32 indexed gameIdx, address indexed opponent);\n    event GameStarted(uint32 indexed gameIdx, address indexed opponent);\n    event PositionMarked(uint32 indexed gameIdx, address indexed opponent);\n    event GameEnded(uint32 indexed gameIdx, address indexed opponent);\n\n   \n    \n    \n\n    function getOpenGames() public view returns (uint32[] memory){\n        return openGames;\n    }\n\n    function getGameInfo(uint32 gameIdx) public view returns (uint32 gameIndex,uint8[] memory cells, uint8 status, uint amount, string memory nick1, string memory nick2) {\n        return (\n        \tgamesData[gameIdx].gameIndex,\n            gamesData[gameIdx].cells,\n            gamesData[gameIdx].status,\n            gamesData[gameIdx].amount,\n            gamesData[gameIdx].nicks[0],\n            gamesData[gameIdx].nicks[1]\n        );\n    }\n\n    function getGameTimestamp(uint32 gameIdx) public view \n    returns (uint lastTransaction) {\n        return (gamesData[gameIdx].lastTransaction);\n    }\n\n    function getGamePlayers(uint32 gameIdx) public view \n    returns (address player1, address player2) {\n        return (\n            gamesData[gameIdx].players[0],\n            gamesData[gameIdx].players[1]\n        );\n    }\n\n    function createGame(bytes32 randomNumberHash, string memory nick) public payable returns (uint32 gameIdx) {\n        require(nextGameIdx + 1 > nextGameIdx);\n        gamesData[nextGameIdx].openListIndex = uint32(openGames.length);\n        gamesData[nextGameIdx].creatorHash = randomNumberHash;\n        gamesData[nextGameIdx].amount = msg.value;\n        gamesData[nextGameIdx].nicks[0] = nick;\n        gamesData[nextGameIdx].players[0] = msg.sender;\n        gamesData[nextGameIdx].lastTransaction = now;\n        gamesData[nextGameIdx].gameIndex = nextGameIdx;\n        openGames.push(nextGameIdx);\n\n        gameIdx = nextGameIdx;\n        emit GameCreated(nextGameIdx);\n        nextGameIdx++;\n    }\n\n    \n    function acceptGame(uint32 gameIdx, uint8 randomNumber, string memory nick) public payable {\n        require(gameIdx < nextGameIdx);\n        require(gamesData[gameIdx].players[0] != address(0x0));\n        require(msg.value == gamesData[gameIdx].amount);\n        require(gamesData[gameIdx].players[1] == address(0x0));\n        require(gamesData[gameIdx].status == 0);\n\n        gamesData[gameIdx].guestRandomNumber = randomNumber;\n        gamesData[gameIdx].nicks[1] = nick;\n        gamesData[gameIdx].players[1] = msg.sender;\n        gamesData[gameIdx].lastTransaction = now;\n\n        emit GameAccepted(gameIdx, gamesData[gameIdx].players[0]);\n\n        // Remove from the available list (unordered)\n        uint32 idxToDelete = uint32(gamesData[gameIdx].openListIndex);\n        openGames[idxToDelete] = openGames[openGames.length - 1];\n        gamesData[gameIdx].openListIndex = idxToDelete;\n        openGames.length--;\n    }\n\n   \n\n\n    function markPosition(uint32 gameIdx, uint8 cell) public {\n        revert();\n    }\n\n    function withdraw(uint32 gameIdx) public {\n        revert();\n    }\n\n    // PUBLIC HELPER FUNCTIONS\n    \n    function saltedHash(uint8 randomNumber, string memory salt) public pure returns (bytes32) {\n        return LibString.saltedHash(randomNumber, salt);\n    }\n\n    // DEFAULT\n    \n    function () external payable {\n        revert();\n    }\n\n    struct Game{\n        uint32 openListIndex;\n        uint8[] cells;\n        uint8 status;\n        uint amount;\n        uint32 gameIndex;\n\n        address[2] players;\n        uint startingPlayer;\n        string[2] nicks;\n        uint lastTransaction;\n        bool[2] withdrawn;\n        bytes32 creatorHash;\n        uint8 guestRandomNumber;\n    }\n\n    uint32[] openGames;\n    mapping(uint32 => Game) gamesData;\n    uint32 nextGameIdx;\n\n\n    string public myString = \"Hello World\";\n\n    function set(string memory x) public {\n        myString = x;\n    }\n\n    // Check Merkle Tree proof\n    function checkProof(bytes32[] memory proof, bytes32 root, bytes32 leaf) pure public returns (bool) {\n        bytes32 computedHash = leaf;\n\n        for (uint256 i = 0; i < proof.length; i++) {\n            bytes32 proofElement = proof[i];\n\n            if (computedHash < proofElement) {\n                // Hash(current computed hash + current element of the proof)\n                computedHash = keccak256(abi.encodePacked(computedHash, proofElement));\n            } else {\n                // Hash(current element of the proof + current computed hash)\n                computedHash = keccak256(abi.encodePacked(proofElement, computedHash));\n            }\n        }\n\n        // Check if the computed hash (root) is equal to the provided root\n        return computedHash == root;\n    }\n\n\n\n    function confirmGame(uint32 gameIdx, uint8 revealedRandomNumber, string memory revealedSalt) public {\n        require(gameIdx < nextGameIdx);\n        require(gamesData[gameIdx].players[0] == msg.sender);\n        require(gamesData[gameIdx].players[1] != address(0x0));\n        require(gamesData[gameIdx].status == 0);\n\n        bytes32 computedHash = saltedHash(revealedRandomNumber, revealedSalt);\n        if(computedHash != gamesData[gameIdx].creatorHash){\n            gamesData[gameIdx].status = 12;\n            emit GameEnded(gameIdx, msg.sender);\n            emit GameEnded(gameIdx, gamesData[gameIdx].players[1]);\n            return;\n        }\n\n        gamesData[gameIdx].lastTransaction = now;\n\n        gamesData[gameIdx].status = 5;\n        //Define the starting player\n        if((revealedRandomNumber ^ gamesData[gameIdx].guestRandomNumber) & 0x01 == 0){\n            gamesData[gameIdx].startingPlayer = 1;\n            emit GameStarted(gameIdx, gamesData[gameIdx].players[1]);\n        } \n        else {\n            gamesData[gameIdx].startingPlayer = 2;\n            emit GameStarted(gameIdx, gamesData[gameIdx].players[1]);\n        }\n        \n    }\n\n    function validateDesk(uint8[] memory rows, uint8[] memory cols) public returns(bool){\n        \n    }\n\n    function playerReady(uint gameIdx, uint8[] memory rows, uint8[] memory cols) public {\n    \t\n    }\n}\n\n\t\n\n",
  "sourcePath": "/home/maks/drizzle-react-tutorial/blockchain/contracts/Battleships.sol",
  "compiler": {
    "name": "solc",
    "version": "0.5.0+commit.1d4f565a.Emscripten.clang"
  },
  "schemaVersion": "3.0.2",
  "updatedAt": "2019-03-03T14:15:56.577Z",
  "devdoc": {
    "methods": {}
  },
  "userdoc": {
    "methods": {}
  }
}