{
  "contractName": "Battleships",
  "abi": [
    {
      "constant": true,
      "inputs": [],
      "name": "myString",
      "outputs": [
        {
          "name": "",
          "type": "string"
        }
      ],
      "payable": false,
      "stateMutability": "view",
      "type": "function",
      "signature": "0x492bfa18"
    },
    {
      "payable": true,
      "stateMutability": "payable",
      "type": "fallback"
    },
    {
      "anonymous": false,
      "inputs": [
        {
          "indexed": true,
          "name": "gameIdx",
          "type": "uint32"
        }
      ],
      "name": "GameCreated",
      "type": "event",
      "signature": "0xe086303ca1b48642b0b5ba69da2571f5e80c0316d829fef02a512f986d2dd97d"
    },
    {
      "anonymous": false,
      "inputs": [
        {
          "indexed": false,
          "name": "gameIdx",
          "type": "uint32"
        },
        {
          "indexed": true,
          "name": "opponent",
          "type": "address"
        }
      ],
      "name": "GameAccepted",
      "type": "event",
      "signature": "0xefe144453900c4d0cd4aef4f468771772ebc548b1253de88ff1a1291b7a57850"
    },
    {
      "anonymous": false,
      "inputs": [
        {
          "indexed": true,
          "name": "gameIdx",
          "type": "uint32"
        },
        {
          "indexed": true,
          "name": "opponent",
          "type": "address"
        }
      ],
      "name": "GameConfirmed",
      "type": "event",
      "signature": "0x8f2cb99bc5461a7abee637666a4af889ad4fc6e24dbfd0e218c1305a6379bf7a"
    },
    {
      "anonymous": false,
      "inputs": [
        {
          "indexed": true,
          "name": "gameIdx",
          "type": "uint32"
        },
        {
          "indexed": true,
          "name": "opponent",
          "type": "address"
        }
      ],
      "name": "GameStarted",
      "type": "event",
      "signature": "0x6d8a1d2dfca1665cabe339d00b017fc53268dbd538c20c3cefc2ce4076ff928a"
    },
    {
      "anonymous": false,
      "inputs": [
        {
          "indexed": true,
          "name": "gameIdx",
          "type": "uint32"
        },
        {
          "indexed": true,
          "name": "opponent",
          "type": "address"
        },
        {
          "indexed": true,
          "name": "target",
          "type": "uint32"
        },
        {
          "indexed": false,
          "name": "prevTarget",
          "type": "uint32"
        },
        {
          "indexed": false,
          "name": "isHit",
          "type": "uint32"
        }
      ],
      "name": "PlayerAttacked",
      "type": "event",
      "signature": "0xcaf18c8a24e064c769b85efed5613b57b4e9706922a96a2b85dece8b4033f72c"
    },
    {
      "anonymous": false,
      "inputs": [
        {
          "indexed": true,
          "name": "gameIdx",
          "type": "uint32"
        },
        {
          "indexed": true,
          "name": "opponent",
          "type": "address"
        }
      ],
      "name": "GameEnded",
      "type": "event",
      "signature": "0x429f8719638cba0a0c2c2f5abdaed73702d21228925bbda0ac0a575bbfed444b"
    },
    {
      "constant": true,
      "inputs": [],
      "name": "getOpenGames",
      "outputs": [
        {
          "name": "",
          "type": "uint32[]"
        }
      ],
      "payable": false,
      "stateMutability": "view",
      "type": "function",
      "signature": "0xe75d7e3e"
    },
    {
      "constant": true,
      "inputs": [
        {
          "name": "gameIdx",
          "type": "uint32"
        }
      ],
      "name": "getGameInfo",
      "outputs": [
        {
          "name": "gameIndex",
          "type": "uint32"
        },
        {
          "name": "status",
          "type": "uint8"
        },
        {
          "name": "amount",
          "type": "uint256"
        },
        {
          "name": "nick1",
          "type": "string"
        },
        {
          "name": "nick2",
          "type": "string"
        }
      ],
      "payable": false,
      "stateMutability": "view",
      "type": "function",
      "signature": "0x848a2351"
    },
    {
      "constant": true,
      "inputs": [
        {
          "name": "gameIdx",
          "type": "uint32"
        }
      ],
      "name": "getGameTimestamp",
      "outputs": [
        {
          "name": "lastTransaction",
          "type": "uint256"
        }
      ],
      "payable": false,
      "stateMutability": "view",
      "type": "function",
      "signature": "0x351638b0"
    },
    {
      "constant": true,
      "inputs": [
        {
          "name": "gameIdx",
          "type": "uint32"
        }
      ],
      "name": "getGamePlayers",
      "outputs": [
        {
          "name": "player1",
          "type": "address"
        },
        {
          "name": "player2",
          "type": "address"
        }
      ],
      "payable": false,
      "stateMutability": "view",
      "type": "function",
      "signature": "0x0cc99ca2"
    },
    {
      "constant": false,
      "inputs": [
        {
          "name": "randomNumberHash",
          "type": "bytes32"
        },
        {
          "name": "nick",
          "type": "string"
        }
      ],
      "name": "createGame",
      "outputs": [
        {
          "name": "gameIdx",
          "type": "uint32"
        }
      ],
      "payable": true,
      "stateMutability": "payable",
      "type": "function",
      "signature": "0x22719305"
    },
    {
      "constant": false,
      "inputs": [
        {
          "name": "gameIdx",
          "type": "uint32"
        },
        {
          "name": "target",
          "type": "uint32"
        }
      ],
      "name": "initialAttack",
      "outputs": [],
      "payable": false,
      "stateMutability": "nonpayable",
      "type": "function",
      "signature": "0x415164fe"
    },
    {
      "constant": false,
      "inputs": [
        {
          "name": "gameIdx",
          "type": "uint32"
        },
        {
          "name": "attackTarget",
          "type": "uint32"
        },
        {
          "name": "proof",
          "type": "bytes32[]"
        },
        {
          "name": "leaf",
          "type": "bytes32"
        },
        {
          "name": "lastTargetProof",
          "type": "string"
        },
        {
          "name": "isHit",
          "type": "uint32"
        }
      ],
      "name": "attack",
      "outputs": [],
      "payable": false,
      "stateMutability": "nonpayable",
      "type": "function",
      "signature": "0x0010d753"
    },
    {
      "constant": false,
      "inputs": [
        {
          "name": "gameIdx",
          "type": "uint32"
        },
        {
          "name": "randomNumber",
          "type": "uint8"
        },
        {
          "name": "nick",
          "type": "string"
        }
      ],
      "name": "acceptGame",
      "outputs": [],
      "payable": true,
      "stateMutability": "payable",
      "type": "function",
      "signature": "0xa97d07b0"
    },
    {
      "constant": false,
      "inputs": [
        {
          "name": "gameIdx",
          "type": "uint32"
        },
        {
          "name": "cell",
          "type": "uint8"
        }
      ],
      "name": "markPosition",
      "outputs": [],
      "payable": false,
      "stateMutability": "nonpayable",
      "type": "function",
      "signature": "0xb60d0e9b"
    },
    {
      "constant": false,
      "inputs": [
        {
          "name": "gameIdx",
          "type": "uint32"
        }
      ],
      "name": "withdraw",
      "outputs": [],
      "payable": false,
      "stateMutability": "nonpayable",
      "type": "function",
      "signature": "0xaa9224cd"
    },
    {
      "constant": true,
      "inputs": [
        {
          "name": "randomNumber",
          "type": "uint8"
        },
        {
          "name": "salt",
          "type": "string"
        }
      ],
      "name": "saltedHash",
      "outputs": [
        {
          "name": "",
          "type": "bytes32"
        }
      ],
      "payable": false,
      "stateMutability": "pure",
      "type": "function",
      "signature": "0x6474c5b8"
    },
    {
      "constant": false,
      "inputs": [
        {
          "name": "x",
          "type": "string"
        }
      ],
      "name": "set",
      "outputs": [],
      "payable": false,
      "stateMutability": "nonpayable",
      "type": "function",
      "signature": "0x4ed3885e"
    },
    {
      "constant": true,
      "inputs": [
        {
          "name": "proof",
          "type": "bytes32[]"
        },
        {
          "name": "root",
          "type": "bytes32"
        },
        {
          "name": "leaf",
          "type": "bytes32"
        }
      ],
      "name": "checkProof",
      "outputs": [
        {
          "name": "",
          "type": "bool"
        }
      ],
      "payable": false,
      "stateMutability": "pure",
      "type": "function",
      "signature": "0x72a52851"
    },
    {
      "constant": false,
      "inputs": [
        {
          "name": "gameIdx",
          "type": "uint32"
        },
        {
          "name": "root",
          "type": "bytes32"
        }
      ],
      "name": "submitMerkleRoot",
      "outputs": [
        {
          "name": "",
          "type": "bytes32"
        }
      ],
      "payable": false,
      "stateMutability": "nonpayable",
      "type": "function",
      "signature": "0x62c78a27"
    },
    {
      "constant": true,
      "inputs": [
        {
          "name": "gameIdx",
          "type": "uint32"
        }
      ],
      "name": "getTestGameInfo",
      "outputs": [
        {
          "name": "gameIndex",
          "type": "uint32"
        },
        {
          "name": "merkleRoots",
          "type": "bytes32[2]"
        },
        {
          "name": "status",
          "type": "uint8"
        },
        {
          "name": "amount",
          "type": "uint256"
        },
        {
          "name": "players",
          "type": "address[2]"
        }
      ],
      "payable": false,
      "stateMutability": "view",
      "type": "function",
      "signature": "0x076c32db"
    },
    {
      "constant": false,
      "inputs": [
        {
          "name": "gameIdx",
          "type": "uint32"
        },
        {
          "name": "revealedRandomNumber",
          "type": "uint8"
        },
        {
          "name": "revealedSalt",
          "type": "string"
        }
      ],
      "name": "confirmGame",
      "outputs": [],
      "payable": false,
      "stateMutability": "nonpayable",
      "type": "function",
      "signature": "0x43b95d7b"
    },
    {
      "constant": false,
      "inputs": [
        {
          "name": "rows",
          "type": "uint8[]"
        },
        {
          "name": "cols",
          "type": "uint8[]"
        }
      ],
      "name": "validateDesk",
      "outputs": [
        {
          "name": "",
          "type": "bool"
        }
      ],
      "payable": false,
      "stateMutability": "nonpayable",
      "type": "function",
      "signature": "0x8e839527"
    },
    {
      "constant": false,
      "inputs": [
        {
          "name": "gameIdx",
          "type": "uint256"
        },
        {
          "name": "rows",
          "type": "uint8[]"
        },
        {
          "name": "cols",
          "type": "uint8[]"
        }
      ],
      "name": "playerReady",
      "outputs": [],
      "payable": false,
      "stateMutability": "nonpayable",
      "type": "function",
      "signature": "0xc27db794"
    }
  ],
  "bytecode": "0x60806040526040805190810160405280600b81526020017f48656c6c6f20576f726c64000000000000000000000000000000000000000000815250600390805190602001906200005192919062000066565b503480156200005f57600080fd5b5062000115565b828054600181600116156101000203166002900490600052602060002090601f016020900481019282601f10620000a957805160ff1916838001178555620000da565b82800160010185558215620000da579182015b82811115620000d9578251825591602001919060010190620000bc565b5b509050620000e99190620000ed565b5090565b6200011291905b808211156200010e576000816000905550600101620000f4565b5090565b90565b61352180620001256000396000f3fe608060405260043610610106576000357c0100000000000000000000000000000000000000000000000000000000900463ffffffff16806210d7531461010b578063076c32db146102a15780630cc99ca2146103745780632271930514610428578063351638b01461050d578063415164fe1461056257806343b95d7b146105b3578063492bfa18146106985780634ed3885e1461072857806362c78a27146107f05780636474c5b81461084f57806372a5285114610938578063848a235114610a295780638e83952714610b76578063a97d07b014610ce7578063aa9224cd14610dbf578063b60d0e9b14610e00578063c27db79414610e4e578063e75d7e3e14610fb1575b600080fd5b34801561011757600080fd5b5061029f600480360360c081101561012e57600080fd5b81019080803563ffffffff169060200190929190803563ffffffff1690602001909291908035906020019064010000000081111561016b57600080fd5b82018360208201111561017d57600080fd5b8035906020019184602083028401116401000000008311171561019f57600080fd5b919080806020026020016040519081016040528093929190818152602001838360200280828437600081840152601f19601f820116905080830192505050505050509192919290803590602001909291908035906020019064010000000081111561020957600080fd5b82018360208201111561021b57600080fd5b8035906020019184600183028401116401000000008311171561023d57600080fd5b91908080601f016020809104026020016040519081016040528093929190818152602001838380828437600081840152601f19601f820116905080830192505050505050509192919290803563ffffffff16906020019092919050505061101d565b005b3480156102ad57600080fd5b506102e0600480360360208110156102c457600080fd5b81019080803563ffffffff16906020019092919050505061172a565b604051808663ffffffff1663ffffffff16815260200185600260200280838360005b8381101561031d578082015181840152602081019050610302565b505050509050018460ff1660ff16815260200183815260200182600260200280838360005b8381101561035d578082015181840152602081019050610342565b505050509050019550505050505060405180910390f35b34801561038057600080fd5b506103b36004803603602081101561039757600080fd5b81019080803563ffffffff1690602001909291905050506118d0565b604051808373ffffffffffffffffffffffffffffffffffffffff1673ffffffffffffffffffffffffffffffffffffffff1681526020018273ffffffffffffffffffffffffffffffffffffffff1673ffffffffffffffffffffffffffffffffffffffff1681526020019250505060405180910390f35b6104eb6004803603604081101561043e57600080fd5b81019080803590602001909291908035906020019064010000000081111561046557600080fd5b82018360208201111561047757600080fd5b8035906020019184600183028401116401000000008311171561049957600080fd5b91908080601f016020809104026020016040519081016040528093929190818152602001838380828437600081840152601f19601f820116905080830192505050505050509192919290505050611980565b604051808263ffffffff1663ffffffff16815260200191505060405180910390f35b34801561051957600080fd5b5061054c6004803603602081101561053057600080fd5b81019080803563ffffffff169060200190929190505050611d03565b6040518082815260200191505060405180910390f35b34801561056e57600080fd5b506105b16004803603604081101561058557600080fd5b81019080803563ffffffff169060200190929190803563ffffffff169060200190929190505050611d2f565b005b3480156105bf57600080fd5b50610696600480360360608110156105d657600080fd5b81019080803563ffffffff169060200190929190803560ff1690602001909291908035906020019064010000000081111561061057600080fd5b82018360208201111561062257600080fd5b8035906020019184600183028401116401000000008311171561064457600080fd5b91908080601f016020809104026020016040519081016040528093929190818152602001838380828437600081840152601f19601f820116905080830192505050505050509192919290505050612062565b005b3480156106a457600080fd5b506106ad612487565b6040518080602001828103825283818151815260200191508051906020019080838360005b838110156106ed5780820151818401526020810190506106d2565b50505050905090810190601f16801561071a5780820380516001836020036101000a031916815260200191505b509250505060405180910390f35b34801561073457600080fd5b506107ee6004803603602081101561074b57600080fd5b810190808035906020019064010000000081111561076857600080fd5b82018360208201111561077a57600080fd5b8035906020019184600183028401116401000000008311171561079c57600080fd5b91908080601f016020809104026020016040519081016040528093929190818152602001838380828437600081840152601f19601f820116905080830192505050505050509192919290505050612525565b005b3480156107fc57600080fd5b506108396004803603604081101561081357600080fd5b81019080803563ffffffff1690602001909291908035906020019092919050505061253f565b6040518082815260200191505060405180910390f35b34801561085b57600080fd5b506109226004803603604081101561087257600080fd5b81019080803560ff1690602001909291908035906020019064010000000081111561089c57600080fd5b8201836020820111156108ae57600080fd5b803590602001918460018302840111640100000000831117156108d057600080fd5b91908080601f016020809104026020016040519081016040528093929190818152602001838380828437600081840152601f19601f820116905080830192505050505050509192919290505050612a8a565b6040518082815260200191505060405180910390f35b34801561094457600080fd5b50610a0f6004803603606081101561095b57600080fd5b810190808035906020019064010000000081111561097857600080fd5b82018360208201111561098a57600080fd5b803590602001918460208302840111640100000000831117156109ac57600080fd5b919080806020026020016040519081016040528093929190818152602001838360200280828437600081840152601f19601f8201169050808301925050505050505091929192908035906020019092919080359060200190929190505050612bad565b604051808215151515815260200191505060405180910390f35b348015610a3557600080fd5b50610a6860048036036020811015610a4c57600080fd5b81019080803563ffffffff169060200190929190505050612c6a565b604051808663ffffffff1663ffffffff1681526020018560ff1660ff1681526020018481526020018060200180602001838103835285818151815260200191508051906020019080838360005b83811015610ad0578082015181840152602081019050610ab5565b50505050905090810190601f168015610afd5780820380516001836020036101000a031916815260200191505b50838103825284818151815260200191508051906020019080838360005b83811015610b36578082015181840152602081019050610b1b565b50505050905090810190601f168015610b635780820380516001836020036101000a031916815260200191505b5097505050505050505060405180910390f35b348015610b8257600080fd5b50610ccd60048036036040811015610b9957600080fd5b8101908080359060200190640100000000811115610bb657600080fd5b820183602082011115610bc857600080fd5b80359060200191846020830284011164010000000083111715610bea57600080fd5b919080806020026020016040519081016040528093929190818152602001838360200280828437600081840152601f19601f82011690508083019250505050505050919291929080359060200190640100000000811115610c4a57600080fd5b820183602082011115610c5c57600080fd5b80359060200191846020830284011164010000000083111715610c7e57600080fd5b919080806020026020016040519081016040528093929190818152602001838360200280828437600081840152601f19601f820116905080830192505050505050509192919290505050612ea5565b604051808215151515815260200191505060405180910390f35b610dbd60048036036060811015610cfd57600080fd5b81019080803563ffffffff169060200190929190803560ff16906020019092919080359060200190640100000000811115610d3757600080fd5b820183602082011115610d4957600080fd5b80359060200191846001830284011164010000000083111715610d6b57600080fd5b91908080601f016020809104026020016040519081016040528093929190818152602001838380828437600081840152601f19601f820116905080830192505050505050509192919290505050612ead565b005b348015610dcb57600080fd5b50610dfe60048036036020811015610de257600080fd5b81019080803563ffffffff16906020019092919050505061333f565b005b348015610e0c57600080fd5b50610e4c60048036036040811015610e2357600080fd5b81019080803563ffffffff169060200190929190803560ff169060200190929190505050613344565b005b348015610e5a57600080fd5b50610faf60048036036060811015610e7157600080fd5b810190808035906020019092919080359060200190640100000000811115610e9857600080fd5b820183602082011115610eaa57600080fd5b80359060200191846020830284011164010000000083111715610ecc57600080fd5b919080806020026020016040519081016040528093929190818152602001838360200280828437600081840152601f19601f82011690508083019250505050505050919291929080359060200190640100000000811115610f2c57600080fd5b820183602082011115610f3e57600080fd5b80359060200191846020830284011164010000000083111715610f6057600080fd5b919080806020026020016040519081016040528093929190818152602001838360200280828437600081840152601f19601f820116905080830192505050505050509192919290505050613349565b005b348015610fbd57600080fd5b50610fc661334e565b6040518080602001828103825283818151815260200191508051906020019060200280838360005b83811015611009578082015181840152602081019050610fee565b505050509050019250505060405180910390f35b600260009054906101000a900463ffffffff1663ffffffff168663ffffffff1610151561104957600080fd5b600073ffffffffffffffffffffffffffffffffffffffff16600160008863ffffffff1663ffffffff168152602001908152602001600020608401600060028110151561109157fe5b0160009054906101000a900473ffffffffffffffffffffffffffffffffffffffff1673ffffffffffffffffffffffffffffffffffffffff16141515156110d657600080fd5b600073ffffffffffffffffffffffffffffffffffffffff16600160008863ffffffff1663ffffffff168152602001908152602001600020608401600160028110151561111e57fe5b0160009054906101000a900473ffffffffffffffffffffffffffffffffffffffff1673ffffffffffffffffffffffffffffffffffffffff161415151561116357600080fd5b60003373ffffffffffffffffffffffffffffffffffffffff16600160008963ffffffff1663ffffffff16815260200190815260200160002060840160006002811015156111ac57fe5b0160009054906101000a900473ffffffffffffffffffffffffffffffffffffffff1673ffffffffffffffffffffffffffffffffffffffff16141561124357600160008863ffffffff1663ffffffff168152602001908152602001600020608401600160028110151561121a57fe5b0160009054906101000a900473ffffffffffffffffffffffffffffffffffffffff169050611298565b600160008863ffffffff1663ffffffff168152602001908152602001600020608401600060028110151561127357fe5b0160009054906101000a900473ffffffffffffffffffffffffffffffffffffffff1690505b6000600160008963ffffffff1663ffffffff16815260200190815260200160002060840160006002811015156112ca57fe5b0160009054906101000a900473ffffffffffffffffffffffffffffffffffffffff1673ffffffffffffffffffffffffffffffffffffffff163373ffffffffffffffffffffffffffffffffffffffff1614156113df5783600160008a63ffffffff1663ffffffff168152602001908152602001600020600101600160008b63ffffffff1663ffffffff16815260200190815260200160002060830160049054906101000a900463ffffffff1663ffffffff1660408110151561138757fe5b01908051906020019061139b9291906133d2565b506113d886600160008b63ffffffff1663ffffffff16815260200190815260200160002060860160006002811015156113d057fe5b015487612bad565b905061149b565b83600160008a63ffffffff1663ffffffff168152602001908152602001600020604101600160008b63ffffffff1663ffffffff16815260200190815260200160002060830160049054906101000a900463ffffffff1663ffffffff1660408110151561144757fe5b01908051906020019061145b9291906133d2565b5061149886600160008b63ffffffff1663ffffffff168152602001908152602001600020608601600160028110151561149057fe5b015487612bad565b90505b80151561163057600160008963ffffffff1663ffffffff16815260200190815260200160002060840160006002811015156114d257fe5b0160009054906101000a900473ffffffffffffffffffffffffffffffffffffffff1673ffffffffffffffffffffffffffffffffffffffff163373ffffffffffffffffffffffffffffffffffffffff16141561156857600c600160008a63ffffffff1663ffffffff16815260200190815260200160002060810160006101000a81548160ff021916908360ff16021790555061162b565b600160008963ffffffff1663ffffffff168152602001908152602001600020608401600160028110151561159857fe5b0160009054906101000a900473ffffffffffffffffffffffffffffffffffffffff1673ffffffffffffffffffffffffffffffffffffffff163373ffffffffffffffffffffffffffffffffffffffff16141561162a57600b600160008a63ffffffff1663ffffffff16815260200190815260200160002060810160006101000a81548160ff021916908360ff1602179055505b5b6116df565b8663ffffffff168273ffffffffffffffffffffffffffffffffffffffff168963ffffffff167fcaf18c8a24e064c769b85efed5613b57b4e9706922a96a2b85dece8b4033f72c600160008d63ffffffff1663ffffffff16815260200190815260200160002060830160049054906101000a900463ffffffff1687604051808363ffffffff1663ffffffff1681526020018263ffffffff1663ffffffff1681526020019250505060405180910390a45b86600160008a63ffffffff1663ffffffff16815260200190815260200160002060830160046101000a81548163ffffffff021916908363ffffffff1602179055505050505050505050565b6000611734613452565b60008061173f613474565b600160008763ffffffff1663ffffffff16815260200190815260200160002060830160009054906101000a900463ffffffff16600160008863ffffffff1663ffffffff168152602001908152602001600020608601600160008963ffffffff1663ffffffff16815260200190815260200160002060810160009054906101000a900460ff16600160008a63ffffffff1663ffffffff16815260200190815260200160002060820154600160008b63ffffffff1663ffffffff16815260200190815260200160002060840183600280602002604051908101604052809291908260028015611841576020028201915b81548152602001906001019080831161182d575b50505050509350806002806020026040519081016040528092919082600280156118b6576020028201915b8160009054906101000a900473ffffffffffffffffffffffffffffffffffffffff1673ffffffffffffffffffffffffffffffffffffffff168152602001906001019080831161186c575b505050505090509450945094509450945091939590929450565b600080600160008463ffffffff1663ffffffff168152602001908152602001600020608401600060028110151561190357fe5b0160009054906101000a900473ffffffffffffffffffffffffffffffffffffffff16600160008563ffffffff1663ffffffff168152602001908152602001600020608401600160028110151561195557fe5b0160009054906101000a900473ffffffffffffffffffffffffffffffffffffffff1691509150915091565b6000600260009054906101000a900463ffffffff1663ffffffff166001600260009054906101000a900463ffffffff160163ffffffff161115156119c357600080fd5b60008054905060016000600260009054906101000a900463ffffffff1663ffffffff1663ffffffff16815260200190815260200160002060000160006101000a81548163ffffffff021916908363ffffffff1602179055508260016000600260009054906101000a900463ffffffff1663ffffffff1663ffffffff168152602001908152602001600020608d01819055503460016000600260009054906101000a900463ffffffff1663ffffffff1663ffffffff168152602001908152602001600020608201819055508160016000600260009054906101000a900463ffffffff1663ffffffff1663ffffffff1681526020019081526020016000206089016000600281101515611ad057fe5b019080519060200190611ae49291906133d2565b503360016000600260009054906101000a900463ffffffff1663ffffffff1663ffffffff1681526020019081526020016000206084016000600281101515611b2857fe5b0160006101000a81548173ffffffffffffffffffffffffffffffffffffffff021916908373ffffffffffffffffffffffffffffffffffffffff1602179055504260016000600260009054906101000a900463ffffffff1663ffffffff1663ffffffff168152602001908152602001600020608b0181905550600260009054906101000a900463ffffffff1660016000600260009054906101000a900463ffffffff1663ffffffff1663ffffffff16815260200190815260200160002060830160006101000a81548163ffffffff021916908363ffffffff1602179055506000600260009054906101000a900463ffffffff16908060018154018082558091505090600182039060005260206000209060089182820401919006600402909192909190916101000a81548163ffffffff021916908363ffffffff16021790555050600260009054906101000a900463ffffffff169050600260009054906101000a900463ffffffff1663ffffffff167fe086303ca1b48642b0b5ba69da2571f5e80c0316d829fef02a512f986d2dd97d60405160405180910390a26002600081819054906101000a900463ffffffff168092919060010191906101000a81548163ffffffff021916908363ffffffff1602179055505092915050565b6000600160008363ffffffff1663ffffffff168152602001908152602001600020608b01549050919050565b600260009054906101000a900463ffffffff1663ffffffff168263ffffffff16101515611d5b57600080fd5b600073ffffffffffffffffffffffffffffffffffffffff16600160008463ffffffff1663ffffffff1681526020019081526020016000206084016000600281101515611da357fe5b0160009054906101000a900473ffffffffffffffffffffffffffffffffffffffff1673ffffffffffffffffffffffffffffffffffffffff1614151515611de857600080fd5b600073ffffffffffffffffffffffffffffffffffffffff16600160008463ffffffff1663ffffffff1681526020019081526020016000206084016001600281101515611e3057fe5b0160009054906101000a900473ffffffffffffffffffffffffffffffffffffffff1673ffffffffffffffffffffffffffffffffffffffff1614151515611e7557600080fd5b60003373ffffffffffffffffffffffffffffffffffffffff16600160008563ffffffff1663ffffffff1681526020019081526020016000206084016000600281101515611ebe57fe5b0160009054906101000a900473ffffffffffffffffffffffffffffffffffffffff1673ffffffffffffffffffffffffffffffffffffffff161415611f5557600160008463ffffffff1663ffffffff1681526020019081526020016000206084016001600281101515611f2c57fe5b0160009054906101000a900473ffffffffffffffffffffffffffffffffffffffff169050611faa565b600160008463ffffffff1663ffffffff1681526020019081526020016000206084016000600281101515611f8557fe5b0160009054906101000a900473ffffffffffffffffffffffffffffffffffffffff1690505b81600160008563ffffffff1663ffffffff16815260200190815260200160002060830160046101000a81548163ffffffff021916908363ffffffff1602179055508163ffffffff168173ffffffffffffffffffffffffffffffffffffffff168463ffffffff167fcaf18c8a24e064c769b85efed5613b57b4e9706922a96a2b85dece8b4033f72c60406003604051808363ffffffff1681526020018263ffffffff1681526020019250505060405180910390a4505050565b600260009054906101000a900463ffffffff1663ffffffff168363ffffffff1610151561208e57600080fd5b3373ffffffffffffffffffffffffffffffffffffffff16600160008563ffffffff1663ffffffff16815260200190815260200160002060840160006002811015156120d557fe5b0160009054906101000a900473ffffffffffffffffffffffffffffffffffffffff1673ffffffffffffffffffffffffffffffffffffffff1614151561211957600080fd5b600073ffffffffffffffffffffffffffffffffffffffff16600160008563ffffffff1663ffffffff168152602001908152602001600020608401600160028110151561216157fe5b0160009054906101000a900473ffffffffffffffffffffffffffffffffffffffff1673ffffffffffffffffffffffffffffffffffffffff16141515156121a657600080fd5b6000600160008563ffffffff1663ffffffff16815260200190815260200160002060810160009054906101000a900460ff1660ff161415156121e757600080fd5b60006121f38383612a8a565b9050600160008563ffffffff1663ffffffff168152602001908152602001600020608d01548114151561234757600c600160008663ffffffff1663ffffffff16815260200190815260200160002060810160006101000a81548160ff021916908360ff1602179055503373ffffffffffffffffffffffffffffffffffffffff168463ffffffff167f429f8719638cba0a0c2c2f5abdaed73702d21228925bbda0ac0a575bbfed444b60405160405180910390a3600160008563ffffffff1663ffffffff16815260200190815260200160002060840160016002811015156122d657fe5b0160009054906101000a900473ffffffffffffffffffffffffffffffffffffffff1673ffffffffffffffffffffffffffffffffffffffff168463ffffffff167f429f8719638cba0a0c2c2f5abdaed73702d21228925bbda0ac0a575bbfed444b60405160405180910390a350612482565b42600160008663ffffffff1663ffffffff168152602001908152602001600020608b01819055506005600160008663ffffffff1663ffffffff16815260200190815260200160002060810160006101000a81548160ff021916908360ff16021790555082600160008663ffffffff1663ffffffff168152602001908152602001600020608e0160016101000a81548160ff021916908360ff160217905550600160008563ffffffff1663ffffffff168152602001908152602001600020608401600160028110151561241557fe5b0160009054906101000a900473ffffffffffffffffffffffffffffffffffffffff1673ffffffffffffffffffffffffffffffffffffffff168463ffffffff167f8f2cb99bc5461a7abee637666a4af889ad4fc6e24dbfd0e218c1305a6379bf7a60405160405180910390a3505b505050565b60038054600181600116156101000203166002900480601f01602080910402602001604051908101604052809291908181526020018280546001816001161561010002031660029004801561251d5780601f106124f25761010080835404028352916020019161251d565b820191906000526020600020905b81548152906001019060200180831161250057829003601f168201915b505050505081565b806003908051906020019061253b9291906133d2565b5050565b6000600160008463ffffffff1663ffffffff168152602001908152602001600020608401600060028110151561257157fe5b0160009054906101000a900473ffffffffffffffffffffffffffffffffffffffff1673ffffffffffffffffffffffffffffffffffffffff163373ffffffffffffffffffffffffffffffffffffffff1614806126485750600160008463ffffffff1663ffffffff16815260200190815260200160002060840160016002811015156125f757fe5b0160009054906101000a900473ffffffffffffffffffffffffffffffffffffffff1673ffffffffffffffffffffffffffffffffffffffff163373ffffffffffffffffffffffffffffffffffffffff16145b151561265357600080fd5b6005600160008563ffffffff1663ffffffff16815260200190815260200160002060810160009054906101000a900460ff1660ff1614151561269457600080fd5b6000829050600160008563ffffffff1663ffffffff16815260200190815260200160002060840160006002811015156126c957fe5b0160009054906101000a900473ffffffffffffffffffffffffffffffffffffffff1673ffffffffffffffffffffffffffffffffffffffff163373ffffffffffffffffffffffffffffffffffffffff1614156127595782600160008663ffffffff1663ffffffff168152602001908152602001600020608601600060028110151561274f57fe5b0181905550612790565b82600160008663ffffffff1663ffffffff168152602001908152602001600020608601600160028110151561278a57fe5b01819055505b6000600102600160008663ffffffff1663ffffffff16815260200190815260200160002060860160006002811015156127c557fe5b01541415801561280a57506000600102600160008663ffffffff1663ffffffff168152602001908152602001600020608601600160028110151561280557fe5b015414155b15612a8057600060018060008763ffffffff1663ffffffff168152602001908152602001600020608e0160009054906101000a900460ff16600160008863ffffffff1663ffffffff168152602001908152602001600020608e0160019054906101000a900460ff16181660ff16141561297f5760018060008663ffffffff1663ffffffff16815260200190815260200160002060810160006101000a81548160ff021916908360ff16021790555060018060008663ffffffff1663ffffffff16815260200190815260200160002060880181905550600160008563ffffffff1663ffffffff168152602001908152602001600020608401600160028110151561290f57fe5b0160009054906101000a900473ffffffffffffffffffffffffffffffffffffffff1673ffffffffffffffffffffffffffffffffffffffff168463ffffffff167f6d8a1d2dfca1665cabe339d00b017fc53268dbd538c20c3cefc2ce4076ff928a60405160405180910390a3612a7f565b6002600160008663ffffffff1663ffffffff16815260200190815260200160002060810160006101000a81548160ff021916908360ff1602179055506002600160008663ffffffff1663ffffffff16815260200190815260200160002060880181905550600160008563ffffffff1663ffffffff1681526020019081526020016000206084016001600281101515612a1357fe5b0160009054906101000a900473ffffffffffffffffffffffffffffffffffffffff1673ffffffffffffffffffffffffffffffffffffffff168463ffffffff167f6d8a1d2dfca1665cabe339d00b017fc53268dbd538c20c3cefc2ce4076ff928a60405160405180910390a35b5b8091505092915050565b600073__LibString_____________________________636474c5b884846040518363ffffffff167c0100000000000000000000000000000000000000000000000000000000028152600401808360ff1660ff16815260200180602001828103825283818151815260200191508051906020019080838360005b83811015612b1f578082015181840152602081019050612b04565b50505050905090810190601f168015612b4c5780820380516001836020036101000a031916815260200191505b50935050505060206040518083038186803b158015612b6a57600080fd5b505af4158015612b7e573d6000803e3d6000fd5b505050506040513d6020811015612b9457600080fd5b8101908080519060200190929190505050905092915050565b60008082905060008090505b8551811015612c5c5760008682815181101515612bd257fe5b90602001906020020151905080831015612c1c5782816040516020018083815260200182815260200192505050604051602081830303815290604052805190602001209250612c4e565b808360405160200180838152602001828152602001925050506040516020818303038152906040528051906020012092505b508080600101915050612bb9565b508381149150509392505050565b6000806000606080600160008763ffffffff1663ffffffff16815260200190815260200160002060830160009054906101000a900463ffffffff16600160008863ffffffff1663ffffffff16815260200190815260200160002060810160009054906101000a900460ff16600160008963ffffffff1663ffffffff16815260200190815260200160002060820154600160008a63ffffffff1663ffffffff1681526020019081526020016000206089016000600281101515612d2857fe5b01600160008b63ffffffff1663ffffffff1681526020019081526020016000206089016001600281101515612d5957fe5b01818054600181600116156101000203166002900480601f016020809104026020016040519081016040528092919081815260200182805460018160011615610100020316600290048015612def5780601f10612dc457610100808354040283529160200191612def565b820191906000526020600020905b815481529060010190602001808311612dd257829003601f168201915b50505050509150808054600181600116156101000203166002900480601f016020809104026020016040519081016040528092919081815260200182805460018160011615610100020316600290048015612e8b5780601f10612e6057610100808354040283529160200191612e8b565b820191906000526020600020905b815481529060010190602001808311612e6e57829003601f168201915b505050505090509450945094509450945091939590929450565b600092915050565b600260009054906101000a900463ffffffff1663ffffffff168363ffffffff16101515612ed957600080fd5b600073ffffffffffffffffffffffffffffffffffffffff16600160008563ffffffff1663ffffffff1681526020019081526020016000206084016000600281101515612f2157fe5b0160009054906101000a900473ffffffffffffffffffffffffffffffffffffffff1673ffffffffffffffffffffffffffffffffffffffff1614151515612f6657600080fd5b600160008463ffffffff1663ffffffff1681526020019081526020016000206082015434141515612f9657600080fd5b600073ffffffffffffffffffffffffffffffffffffffff16600160008563ffffffff1663ffffffff1681526020019081526020016000206084016001600281101515612fde57fe5b0160009054906101000a900473ffffffffffffffffffffffffffffffffffffffff1673ffffffffffffffffffffffffffffffffffffffff1614151561302257600080fd5b6000600160008563ffffffff1663ffffffff16815260200190815260200160002060810160009054906101000a900460ff1660ff1614151561306357600080fd5b81600160008563ffffffff1663ffffffff168152602001908152602001600020608e0160006101000a81548160ff021916908360ff16021790555080600160008563ffffffff1663ffffffff16815260200190815260200160002060890160016002811015156130cf57fe5b0190805190602001906130e39291906133d2565b5033600160008563ffffffff1663ffffffff168152602001908152602001600020608401600160028110151561311557fe5b0160006101000a81548173ffffffffffffffffffffffffffffffffffffffff021916908373ffffffffffffffffffffffffffffffffffffffff16021790555042600160008563ffffffff1663ffffffff168152602001908152602001600020608b01819055506000600160008563ffffffff1663ffffffff16815260200190815260200160002060000160009054906101000a900463ffffffff16905060006001600080549050038154811015156131c957fe5b90600052602060002090600891828204019190066004029054906101000a900463ffffffff1660008263ffffffff1681548110151561320457fe5b90600052602060002090600891828204019190066004026101000a81548163ffffffff021916908363ffffffff16021790555080600160008663ffffffff1663ffffffff16815260200190815260200160002060000160006101000a81548163ffffffff021916908363ffffffff160217905550600080548091906001900361328d9190613496565b50600160008563ffffffff1663ffffffff16815260200190815260200160002060840160006002811015156132be57fe5b0160009054906101000a900473ffffffffffffffffffffffffffffffffffffffff1673ffffffffffffffffffffffffffffffffffffffff167fefe144453900c4d0cd4aef4f468771772ebc548b1253de88ff1a1291b7a5785085604051808263ffffffff1663ffffffff16815260200191505060405180910390a250505050565b600080fd5b600080fd5b505050565b606060008054806020026020016040519081016040528092919081815260200182805480156133c857602002820191906000526020600020906000905b82829054906101000a900463ffffffff1663ffffffff168152602001906004019060208260030104928301926001038202915080841161338b5790505b5050505050905090565b828054600181600116156101000203166002900490600052602060002090601f016020900481019282601f1061341357805160ff1916838001178555613441565b82800160010185558215613441579182015b82811115613440578251825591602001919060010190613425565b5b50905061344e91906134d0565b5090565b6040805190810160405280600290602082028038833980820191505090505090565b6040805190810160405280600290602082028038833980820191505090505090565b8154818355818111156134cb5760070160089004816007016008900483600052602060002091820191016134ca91906134d0565b5b505050565b6134f291905b808211156134ee5760008160009055506001016134d6565b5090565b9056fea165627a7a72305820d708a09c2aad25d5d820cd045975fc7f3ab0418964d5afd6a83d0bc528fab7030029",
  "source": "pragma solidity ^0.5.0;\n\nimport \"./LibString.sol\";\n\ncontract Battleships {\n\n\t// Events\n\n    event GameCreated(uint32 indexed gameIdx);\n    event GameAccepted(uint32 gameIdx, address indexed opponent);\n    event GameConfirmed(uint32 indexed gameIdx, address indexed opponent);\n    event GameStarted(uint32 indexed gameIdx, address indexed opponent);\n    event PlayerAttacked(uint32 indexed gameIdx, address indexed opponent, uint32 indexed target, uint32 prevTarget, uint32 isHit);\n    event GameEnded(uint32 indexed gameIdx, address indexed opponent);\n    \n\n\n   \n    \n    \n\n    function getOpenGames() public view returns (uint32[] memory){\n        return openGames;\n    }\n\n    function getGameInfo(uint32 gameIdx) public view returns (uint32 gameIndex, uint8 status, uint amount, string memory nick1, string memory nick2) {\n        return (\n        \tgamesData[gameIdx].gameIndex,\n            gamesData[gameIdx].status,\n            gamesData[gameIdx].amount,\n            gamesData[gameIdx].nicks[0],\n            gamesData[gameIdx].nicks[1]\n        );\n    }\n\n    function getGameTimestamp(uint32 gameIdx) public view \n    returns (uint lastTransaction) {\n        return (gamesData[gameIdx].lastTransaction);\n    }\n\n    function getGamePlayers(uint32 gameIdx) public view \n    returns (address player1, address player2) {\n        return (\n            gamesData[gameIdx].players[0],\n            gamesData[gameIdx].players[1]\n        );\n    }\n\n    function createGame(bytes32 randomNumberHash, string memory nick) public payable returns (uint32 gameIdx) {\n        require(nextGameIdx + 1 > nextGameIdx);\n        gamesData[nextGameIdx].openListIndex = uint32(openGames.length);\n        gamesData[nextGameIdx].creatorHash = randomNumberHash;\n        gamesData[nextGameIdx].amount = msg.value;\n        gamesData[nextGameIdx].nicks[0] = nick;\n        gamesData[nextGameIdx].players[0] = msg.sender;\n        gamesData[nextGameIdx].lastTransaction = now;\n        gamesData[nextGameIdx].gameIndex = nextGameIdx;\n        openGames.push(nextGameIdx);\n\n        gameIdx = nextGameIdx;\n        emit GameCreated(nextGameIdx);\n        nextGameIdx++;\n    }\n\n    function initialAttack(uint32 gameIdx, uint32 target) public{\n        require(gameIdx < nextGameIdx);\n        require(gamesData[gameIdx].players[0] != address(0x0));\n        require(gamesData[gameIdx].players[1] != address(0x0));\n\n        address opponent;\n        if(gamesData[gameIdx].players[0] == msg.sender)\n            opponent = gamesData[gameIdx].players[1];\n        else opponent = gamesData[gameIdx].players[0];\n\n        gamesData[gameIdx].lastTarget = target;\n        emit PlayerAttacked(gameIdx, opponent, target,64,3);\n\n        \n    }\n\n    function attack(uint32 gameIdx, uint32 attackTarget, bytes32[] memory proof, bytes32 leaf, string memory lastTargetProof, uint32 isHit) public{\n        require(gameIdx < nextGameIdx);\n        require(gamesData[gameIdx].players[0] != address(0x0));\n        require(gamesData[gameIdx].players[1] != address(0x0));\n\n        address opponent;\n        if(gamesData[gameIdx].players[0] == msg.sender)\n            opponent = gamesData[gameIdx].players[1];\n        else opponent = gamesData[gameIdx].players[0];\n\n\n        bool isProofValid;\n\n        if(msg.sender == gamesData[gameIdx].players[0]){\n            gamesData[gameIdx].player1Cells[gamesData[gameIdx].lastTarget]  = lastTargetProof;\n            isProofValid = checkProof(proof, gamesData[gameIdx].merkleRoots[0], leaf);\n        }\n        else{\n            gamesData[gameIdx].player2Cells[gamesData[gameIdx].lastTarget]  = lastTargetProof;\n            isProofValid = checkProof(proof, gamesData[gameIdx].merkleRoots[1], leaf);\n        }\n\n        if(!isProofValid){\n            if(msg.sender == gamesData[gameIdx].players[0])\n                gamesData[gameIdx].status = 12;\n            else if(msg.sender == gamesData[gameIdx].players[1])\n                gamesData[gameIdx].status = 11;\n        }\n        else\n        \n\n        emit PlayerAttacked(gameIdx, opponent, attackTarget,gamesData[gameIdx].lastTarget, isHit);\n\n        gamesData[gameIdx].lastTarget = attackTarget;\n    }\n\n    \n    function acceptGame(uint32 gameIdx, uint8 randomNumber, string memory nick) public payable {\n        require(gameIdx < nextGameIdx);\n        require(gamesData[gameIdx].players[0] != address(0x0));\n        require(msg.value == gamesData[gameIdx].amount);\n        require(gamesData[gameIdx].players[1] == address(0x0));\n        require(gamesData[gameIdx].status == 0);\n\n        gamesData[gameIdx].guestRandomNumber = randomNumber;\n        gamesData[gameIdx].nicks[1] = nick;\n        gamesData[gameIdx].players[1] = msg.sender;\n        gamesData[gameIdx].lastTransaction = now;\n\n        \n\n        // Remove from the available list (unordered)\n        uint32 idxToDelete = uint32(gamesData[gameIdx].openListIndex);\n        openGames[idxToDelete] = openGames[openGames.length - 1];\n        gamesData[gameIdx].openListIndex = idxToDelete;\n        openGames.length--;\n\n        emit GameAccepted(gameIdx, gamesData[gameIdx].players[0]);\n    }\n\n   \n\n\n    function markPosition(uint32 gameIdx, uint8 cell) public {\n        revert();\n    }\n\n    function withdraw(uint32 gameIdx) public {\n        revert();\n    }\n\n    // PUBLIC HELPER FUNCTIONS\n    \n    function saltedHash(uint8 randomNumber, string memory salt) public pure returns (bytes32) {\n        return LibString.saltedHash(randomNumber, salt);\n    }\n\n    // DEFAULT\n    \n    function () external payable {\n        revert();\n    }\n\n    \n\n    struct Game{\n        uint32 openListIndex;\n        string[64] player1Cells;\n        string[64] player2Cells;\n        uint8 status;       // 0 - Game Created / 1 - Player1 turn / 2 - Player2 turn, 5 - game confirmed / 11 - Player1 wins // 12 - Player2 wins.\n        uint amount;\n        uint32 gameIndex;\n\n        uint32 lastTarget;\n        address[2] players;\n        bytes32[2] merkleRoots;\n        uint startingPlayer;\n        string[2] nicks;\n        uint lastTransaction;\n        bool[2] withdrawn;\n        bytes32 creatorHash;\n        uint8 guestRandomNumber;\n        uint8 creatorRandomNumber;\n    }\n\n    uint32[] openGames;\n    mapping(uint32 => Game) gamesData;\n    uint32 nextGameIdx;\n\n\n    string public myString = \"Hello World\";\n\n    function set(string memory x) public {\n        myString = x;\n    }\n\n    // Check Merkle Tree proof ( merkle proof = merkle path)\n    function checkProof(bytes32[] memory proof, bytes32 root, bytes32 leaf) pure public returns (bool) {\n        bytes32 computedHash = leaf;\n\n        for (uint256 i = 0; i < proof.length; i++) {\n            bytes32 proofElement = proof[i];\n\n            if (computedHash < proofElement) {\n                // Hash(current computed hash + current element of the proof)\n                computedHash = keccak256(abi.encodePacked(computedHash, proofElement));\n            } else {\n                // Hash(current element of the proof + current computed hash)\n                computedHash = keccak256(abi.encodePacked(proofElement, computedHash));\n            }\n        }\n\n        // Check if the computed hash (root) is equal to the provided root\n        return computedHash == root;\n    }\n\n    function submitMerkleRoot(uint32 gameIdx, bytes32 root) public returns(bytes32){\n        require(msg.sender == gamesData[gameIdx].players[0] || msg.sender == gamesData[gameIdx].players[1]);\n        require(gamesData[gameIdx].status == 5);\n\n        bytes32 root1 = root;\n        \n        \n        if(msg.sender == gamesData[gameIdx].players[0])\n            gamesData[gameIdx].merkleRoots[0] = root;\n            else\n            gamesData[gameIdx].merkleRoots[1] = root;\n\n        if(gamesData[gameIdx].merkleRoots[0] != 0x0 && gamesData[gameIdx].merkleRoots[1] != 0x0){\n             //Define the starting player\n            if((gamesData[gameIdx].creatorRandomNumber ^ gamesData[gameIdx].guestRandomNumber) & 0x01 == 0){\n                gamesData[gameIdx].status = 1;\n                gamesData[gameIdx].startingPlayer = 1;\n                emit GameStarted(gameIdx, gamesData[gameIdx].players[1]);\n        } \n        else {\n                gamesData[gameIdx].status = 2;\n                gamesData[gameIdx].startingPlayer = 2;\n                emit GameStarted(gameIdx, gamesData[gameIdx].players[1]);\n        }\n        }\n        return root1;\n    }\n\n    function getTestGameInfo(uint32 gameIdx) public view returns (uint32 gameIndex,bytes32[2] memory merkleRoots, uint8 status, uint amount, address[2] memory players) {\n        return (\n        \tgamesData[gameIdx].gameIndex,\n            gamesData[gameIdx].merkleRoots,\n            gamesData[gameIdx].status,\n            gamesData[gameIdx].amount,\n            gamesData[gameIdx].players\n           \n            \n        );\n    }\n\n\n\n    function confirmGame(uint32 gameIdx, uint8 revealedRandomNumber, string memory revealedSalt) public {\n        require(gameIdx < nextGameIdx);\n        require(gamesData[gameIdx].players[0] == msg.sender);\n        require(gamesData[gameIdx].players[1] != address(0x0));\n        require(gamesData[gameIdx].status == 0);\n\n        bytes32 computedHash = saltedHash(revealedRandomNumber, revealedSalt);\n        if(computedHash != gamesData[gameIdx].creatorHash){\n            gamesData[gameIdx].status = 12;\n            emit GameEnded(gameIdx, msg.sender);\n            emit GameEnded(gameIdx, gamesData[gameIdx].players[1]);\n            return;\n        }\n\n        gamesData[gameIdx].lastTransaction = now;\n\n        gamesData[gameIdx].status = 5;\n\n\n        gamesData[gameIdx].creatorRandomNumber = revealedRandomNumber;\n       \n        emit GameConfirmed(gameIdx, gamesData[gameIdx].players[1]);\n       \n    }\n\n    function validateDesk(uint8[] memory rows, uint8[] memory cols) public returns(bool){\n        \n    }\n\n    function playerReady(uint gameIdx, uint8[] memory rows, uint8[] memory cols) public {\n    \t\n    }\n}\n\n\t\n\n",
  "sourcePath": "/home/maks/drizzle-react-tutorial/blockchain/contracts/Battleships.sol",
  "compiler": {
    "name": "solc",
    "version": "0.5.0+commit.1d4f565a.Emscripten.clang"
  },
  "schemaVersion": "3.0.2",
  "updatedAt": "2019-03-06T19:35:55.427Z",
  "devdoc": {
    "methods": {}
  },
  "userdoc": {
    "methods": {}
  }
}