{
  "contractName": "Battleships",
  "abi": [
    {
      "constant": true,
      "inputs": [],
      "name": "myString",
      "outputs": [
        {
          "name": "",
          "type": "string"
        }
      ],
      "payable": false,
      "stateMutability": "view",
      "type": "function",
      "signature": "0x492bfa18"
    },
    {
      "payable": true,
      "stateMutability": "payable",
      "type": "fallback"
    },
    {
      "anonymous": false,
      "inputs": [
        {
          "indexed": true,
          "name": "gameIdx",
          "type": "uint32"
        }
      ],
      "name": "GameCreated",
      "type": "event",
      "signature": "0xe086303ca1b48642b0b5ba69da2571f5e80c0316d829fef02a512f986d2dd97d"
    },
    {
      "anonymous": false,
      "inputs": [
        {
          "indexed": false,
          "name": "gameIdx",
          "type": "uint32"
        },
        {
          "indexed": true,
          "name": "opponent",
          "type": "address"
        }
      ],
      "name": "GameAccepted",
      "type": "event",
      "signature": "0xefe144453900c4d0cd4aef4f468771772ebc548b1253de88ff1a1291b7a57850"
    },
    {
      "anonymous": false,
      "inputs": [
        {
          "indexed": true,
          "name": "gameIdx",
          "type": "uint32"
        },
        {
          "indexed": true,
          "name": "opponent",
          "type": "address"
        }
      ],
      "name": "GameConfirmed",
      "type": "event",
      "signature": "0x8f2cb99bc5461a7abee637666a4af889ad4fc6e24dbfd0e218c1305a6379bf7a"
    },
    {
      "anonymous": false,
      "inputs": [
        {
          "indexed": true,
          "name": "gameIdx",
          "type": "uint32"
        },
        {
          "indexed": true,
          "name": "opponent",
          "type": "address"
        }
      ],
      "name": "GameStarted",
      "type": "event",
      "signature": "0x6d8a1d2dfca1665cabe339d00b017fc53268dbd538c20c3cefc2ce4076ff928a"
    },
    {
      "anonymous": false,
      "inputs": [
        {
          "indexed": true,
          "name": "gameIdx",
          "type": "uint32"
        },
        {
          "indexed": true,
          "name": "opponent",
          "type": "address"
        },
        {
          "indexed": true,
          "name": "target",
          "type": "uint32"
        },
        {
          "indexed": false,
          "name": "prevTarget",
          "type": "uint32"
        },
        {
          "indexed": false,
          "name": "isHit",
          "type": "bool"
        }
      ],
      "name": "PlayerAttacked",
      "type": "event",
      "signature": "0xfcfcf45d1edd85af65e430826d556c55a4583a4a3ad9af2c4a8a6391120ad55d"
    },
    {
      "anonymous": false,
      "inputs": [
        {
          "indexed": true,
          "name": "gameIdx",
          "type": "uint32"
        },
        {
          "indexed": true,
          "name": "opponent",
          "type": "address"
        }
      ],
      "name": "GameEnded",
      "type": "event",
      "signature": "0x429f8719638cba0a0c2c2f5abdaed73702d21228925bbda0ac0a575bbfed444b"
    },
    {
      "constant": true,
      "inputs": [],
      "name": "getOpenGames",
      "outputs": [
        {
          "name": "",
          "type": "uint32[]"
        }
      ],
      "payable": false,
      "stateMutability": "view",
      "type": "function",
      "signature": "0xe75d7e3e"
    },
    {
      "constant": true,
      "inputs": [
        {
          "name": "gameIdx",
          "type": "uint32"
        }
      ],
      "name": "getGameInfo",
      "outputs": [
        {
          "name": "gameIndex",
          "type": "uint32"
        },
        {
          "name": "status",
          "type": "uint8"
        },
        {
          "name": "amount",
          "type": "uint256"
        },
        {
          "name": "nick1",
          "type": "string"
        },
        {
          "name": "nick2",
          "type": "string"
        }
      ],
      "payable": false,
      "stateMutability": "view",
      "type": "function",
      "signature": "0x848a2351"
    },
    {
      "constant": true,
      "inputs": [
        {
          "name": "gameIdx",
          "type": "uint32"
        }
      ],
      "name": "getGameTimestamp",
      "outputs": [
        {
          "name": "lastTransaction",
          "type": "uint256"
        }
      ],
      "payable": false,
      "stateMutability": "view",
      "type": "function",
      "signature": "0x351638b0"
    },
    {
      "constant": true,
      "inputs": [
        {
          "name": "gameIdx",
          "type": "uint32"
        }
      ],
      "name": "getGamePlayers",
      "outputs": [
        {
          "name": "player1",
          "type": "address"
        },
        {
          "name": "player2",
          "type": "address"
        }
      ],
      "payable": false,
      "stateMutability": "view",
      "type": "function",
      "signature": "0x0cc99ca2"
    },
    {
      "constant": false,
      "inputs": [
        {
          "name": "randomNumberHash",
          "type": "bytes32"
        },
        {
          "name": "nick",
          "type": "string"
        }
      ],
      "name": "createGame",
      "outputs": [
        {
          "name": "gameIdx",
          "type": "uint32"
        }
      ],
      "payable": true,
      "stateMutability": "payable",
      "type": "function",
      "signature": "0x22719305"
    },
    {
      "constant": false,
      "inputs": [
        {
          "name": "gameIdx",
          "type": "uint32"
        },
        {
          "name": "target",
          "type": "uint32"
        }
      ],
      "name": "initialAttack",
      "outputs": [],
      "payable": false,
      "stateMutability": "nonpayable",
      "type": "function",
      "signature": "0x415164fe"
    },
    {
      "constant": false,
      "inputs": [
        {
          "name": "gameIdx",
          "type": "uint32"
        },
        {
          "name": "attackTarget",
          "type": "uint32"
        },
        {
          "name": "proof",
          "type": "bytes32[]"
        },
        {
          "name": "leaf",
          "type": "bytes32"
        },
        {
          "name": "lastTargetProof",
          "type": "string"
        },
        {
          "name": "isHit",
          "type": "bool"
        }
      ],
      "name": "attack",
      "outputs": [],
      "payable": false,
      "stateMutability": "nonpayable",
      "type": "function",
      "signature": "0x3401c96d"
    },
    {
      "constant": false,
      "inputs": [
        {
          "name": "gameIdx",
          "type": "uint32"
        },
        {
          "name": "randomNumber",
          "type": "uint8"
        },
        {
          "name": "nick",
          "type": "string"
        }
      ],
      "name": "acceptGame",
      "outputs": [],
      "payable": true,
      "stateMutability": "payable",
      "type": "function",
      "signature": "0xa97d07b0"
    },
    {
      "constant": false,
      "inputs": [
        {
          "name": "gameIdx",
          "type": "uint32"
        },
        {
          "name": "cell",
          "type": "uint8"
        }
      ],
      "name": "markPosition",
      "outputs": [],
      "payable": false,
      "stateMutability": "nonpayable",
      "type": "function",
      "signature": "0xb60d0e9b"
    },
    {
      "constant": false,
      "inputs": [
        {
          "name": "gameIdx",
          "type": "uint32"
        }
      ],
      "name": "withdraw",
      "outputs": [],
      "payable": false,
      "stateMutability": "nonpayable",
      "type": "function",
      "signature": "0xaa9224cd"
    },
    {
      "constant": true,
      "inputs": [
        {
          "name": "randomNumber",
          "type": "uint8"
        },
        {
          "name": "salt",
          "type": "string"
        }
      ],
      "name": "saltedHash",
      "outputs": [
        {
          "name": "",
          "type": "bytes32"
        }
      ],
      "payable": false,
      "stateMutability": "pure",
      "type": "function",
      "signature": "0x6474c5b8"
    },
    {
      "constant": false,
      "inputs": [
        {
          "name": "x",
          "type": "string"
        }
      ],
      "name": "set",
      "outputs": [],
      "payable": false,
      "stateMutability": "nonpayable",
      "type": "function",
      "signature": "0x4ed3885e"
    },
    {
      "constant": true,
      "inputs": [
        {
          "name": "proof",
          "type": "bytes32[]"
        },
        {
          "name": "root",
          "type": "bytes32"
        },
        {
          "name": "leaf",
          "type": "bytes32"
        }
      ],
      "name": "checkProof",
      "outputs": [
        {
          "name": "",
          "type": "bool"
        }
      ],
      "payable": false,
      "stateMutability": "pure",
      "type": "function",
      "signature": "0x72a52851"
    },
    {
      "constant": false,
      "inputs": [
        {
          "name": "gameIdx",
          "type": "uint32"
        },
        {
          "name": "root",
          "type": "bytes32"
        }
      ],
      "name": "submitMerkleRoot",
      "outputs": [
        {
          "name": "",
          "type": "bytes32"
        }
      ],
      "payable": false,
      "stateMutability": "nonpayable",
      "type": "function",
      "signature": "0x62c78a27"
    },
    {
      "constant": true,
      "inputs": [
        {
          "name": "gameIdx",
          "type": "uint32"
        }
      ],
      "name": "getTestGameInfo",
      "outputs": [
        {
          "name": "gameIndex",
          "type": "uint32"
        },
        {
          "name": "merkleRoots",
          "type": "bytes32[2]"
        },
        {
          "name": "status",
          "type": "uint8"
        },
        {
          "name": "amount",
          "type": "uint256"
        },
        {
          "name": "players",
          "type": "address[2]"
        }
      ],
      "payable": false,
      "stateMutability": "view",
      "type": "function",
      "signature": "0x076c32db"
    },
    {
      "constant": false,
      "inputs": [
        {
          "name": "gameIdx",
          "type": "uint32"
        },
        {
          "name": "revealedRandomNumber",
          "type": "uint8"
        },
        {
          "name": "revealedSalt",
          "type": "string"
        }
      ],
      "name": "confirmGame",
      "outputs": [],
      "payable": false,
      "stateMutability": "nonpayable",
      "type": "function",
      "signature": "0x43b95d7b"
    },
    {
      "constant": false,
      "inputs": [
        {
          "name": "rows",
          "type": "uint8[]"
        },
        {
          "name": "cols",
          "type": "uint8[]"
        }
      ],
      "name": "validateDesk",
      "outputs": [
        {
          "name": "",
          "type": "bool"
        }
      ],
      "payable": false,
      "stateMutability": "nonpayable",
      "type": "function",
      "signature": "0x8e839527"
    },
    {
      "constant": false,
      "inputs": [
        {
          "name": "gameIdx",
          "type": "uint256"
        },
        {
          "name": "rows",
          "type": "uint8[]"
        },
        {
          "name": "cols",
          "type": "uint8[]"
        }
      ],
      "name": "playerReady",
      "outputs": [],
      "payable": false,
      "stateMutability": "nonpayable",
      "type": "function",
      "signature": "0xc27db794"
    }
  ],
  "bytecode": "0x60806040526040805190810160405280600b81526020017f48656c6c6f20576f726c64000000000000000000000000000000000000000000815250600390805190602001906200005192919062000066565b503480156200005f57600080fd5b5062000115565b828054600181600116156101000203166002900490600052602060002090601f016020900481019282601f10620000a957805160ff1916838001178555620000da565b82800160010185558215620000da579182015b82811115620000d9578251825591602001919060010190620000bc565b5b509050620000e99190620000ed565b5090565b6200011291905b808211156200010e576000816000905550600101620000f4565b5090565b90565b61351480620001256000396000f3fe608060405260043610610107576000357c0100000000000000000000000000000000000000000000000000000000900463ffffffff168063076c32db1461010c5780630cc99ca2146101df57806322719305146102935780633401c96d14610378578063351638b01461050a578063415164fe1461055f57806343b95d7b146105b0578063492bfa18146106955780634ed3885e1461072557806362c78a27146107ed5780636474c5b81461084c57806372a5285114610935578063848a235114610a265780638e83952714610b73578063a97d07b014610ce4578063aa9224cd14610dbc578063b60d0e9b14610dfd578063c27db79414610e4b578063e75d7e3e14610fae575b600080fd5b34801561011857600080fd5b5061014b6004803603602081101561012f57600080fd5b81019080803563ffffffff16906020019092919050505061101a565b604051808663ffffffff1663ffffffff16815260200185600260200280838360005b8381101561018857808201518184015260208101905061016d565b505050509050018460ff1660ff16815260200183815260200182600260200280838360005b838110156101c85780820151818401526020810190506101ad565b505050509050019550505050505060405180910390f35b3480156101eb57600080fd5b5061021e6004803603602081101561020257600080fd5b81019080803563ffffffff1690602001909291905050506111c0565b604051808373ffffffffffffffffffffffffffffffffffffffff1673ffffffffffffffffffffffffffffffffffffffff1681526020018273ffffffffffffffffffffffffffffffffffffffff1673ffffffffffffffffffffffffffffffffffffffff1681526020019250505060405180910390f35b610356600480360360408110156102a957600080fd5b8101908080359060200190929190803590602001906401000000008111156102d057600080fd5b8201836020820111156102e257600080fd5b8035906020019184600183028401116401000000008311171561030457600080fd5b91908080601f016020809104026020016040519081016040528093929190818152602001838380828437600081840152601f19601f820116905080830192505050505050509192919290505050611270565b604051808263ffffffff1663ffffffff16815260200191505060405180910390f35b34801561038457600080fd5b50610508600480360360c081101561039b57600080fd5b81019080803563ffffffff169060200190929190803563ffffffff169060200190929190803590602001906401000000008111156103d857600080fd5b8201836020820111156103ea57600080fd5b8035906020019184602083028401116401000000008311171561040c57600080fd5b919080806020026020016040519081016040528093929190818152602001838360200280828437600081840152601f19601f820116905080830192505050505050509192919290803590602001909291908035906020019064010000000081111561047657600080fd5b82018360208201111561048857600080fd5b803590602001918460018302840111640100000000831117156104aa57600080fd5b91908080601f016020809104026020016040519081016040528093929190818152602001838380828437600081840152601f19601f8201169050808301925050505050505091929192908035151590602001909291905050506115f3565b005b34801561051657600080fd5b506105496004803603602081101561052d57600080fd5b81019080803563ffffffff169060200190929190505050611cf8565b6040518082815260200191505060405180910390f35b34801561056b57600080fd5b506105ae6004803603604081101561058257600080fd5b81019080803563ffffffff169060200190929190803563ffffffff169060200190929190505050611d24565b005b3480156105bc57600080fd5b50610693600480360360608110156105d357600080fd5b81019080803563ffffffff169060200190929190803560ff1690602001909291908035906020019064010000000081111561060d57600080fd5b82018360208201111561061f57600080fd5b8035906020019184600183028401116401000000008311171561064157600080fd5b91908080601f016020809104026020016040519081016040528093929190818152602001838380828437600081840152601f19601f820116905080830192505050505050509192919290505050612055565b005b3480156106a157600080fd5b506106aa61247a565b6040518080602001828103825283818151815260200191508051906020019080838360005b838110156106ea5780820151818401526020810190506106cf565b50505050905090810190601f1680156107175780820380516001836020036101000a031916815260200191505b509250505060405180910390f35b34801561073157600080fd5b506107eb6004803603602081101561074857600080fd5b810190808035906020019064010000000081111561076557600080fd5b82018360208201111561077757600080fd5b8035906020019184600183028401116401000000008311171561079957600080fd5b91908080601f016020809104026020016040519081016040528093929190818152602001838380828437600081840152601f19601f820116905080830192505050505050509192919290505050612518565b005b3480156107f957600080fd5b506108366004803603604081101561081057600080fd5b81019080803563ffffffff16906020019092919080359060200190929190505050612532565b6040518082815260200191505060405180910390f35b34801561085857600080fd5b5061091f6004803603604081101561086f57600080fd5b81019080803560ff1690602001909291908035906020019064010000000081111561089957600080fd5b8201836020820111156108ab57600080fd5b803590602001918460018302840111640100000000831117156108cd57600080fd5b91908080601f016020809104026020016040519081016040528093929190818152602001838380828437600081840152601f19601f820116905080830192505050505050509192919290505050612a7d565b6040518082815260200191505060405180910390f35b34801561094157600080fd5b50610a0c6004803603606081101561095857600080fd5b810190808035906020019064010000000081111561097557600080fd5b82018360208201111561098757600080fd5b803590602001918460208302840111640100000000831117156109a957600080fd5b919080806020026020016040519081016040528093929190818152602001838360200280828437600081840152601f19601f8201169050808301925050505050505091929192908035906020019092919080359060200190929190505050612ba0565b604051808215151515815260200191505060405180910390f35b348015610a3257600080fd5b50610a6560048036036020811015610a4957600080fd5b81019080803563ffffffff169060200190929190505050612c5d565b604051808663ffffffff1663ffffffff1681526020018560ff1660ff1681526020018481526020018060200180602001838103835285818151815260200191508051906020019080838360005b83811015610acd578082015181840152602081019050610ab2565b50505050905090810190601f168015610afa5780820380516001836020036101000a031916815260200191505b50838103825284818151815260200191508051906020019080838360005b83811015610b33578082015181840152602081019050610b18565b50505050905090810190601f168015610b605780820380516001836020036101000a031916815260200191505b5097505050505050505060405180910390f35b348015610b7f57600080fd5b50610cca60048036036040811015610b9657600080fd5b8101908080359060200190640100000000811115610bb357600080fd5b820183602082011115610bc557600080fd5b80359060200191846020830284011164010000000083111715610be757600080fd5b919080806020026020016040519081016040528093929190818152602001838360200280828437600081840152601f19601f82011690508083019250505050505050919291929080359060200190640100000000811115610c4757600080fd5b820183602082011115610c5957600080fd5b80359060200191846020830284011164010000000083111715610c7b57600080fd5b919080806020026020016040519081016040528093929190818152602001838360200280828437600081840152601f19601f820116905080830192505050505050509192919290505050612e98565b604051808215151515815260200191505060405180910390f35b610dba60048036036060811015610cfa57600080fd5b81019080803563ffffffff169060200190929190803560ff16906020019092919080359060200190640100000000811115610d3457600080fd5b820183602082011115610d4657600080fd5b80359060200191846001830284011164010000000083111715610d6857600080fd5b91908080601f016020809104026020016040519081016040528093929190818152602001838380828437600081840152601f19601f820116905080830192505050505050509192919290505050612ea0565b005b348015610dc857600080fd5b50610dfb60048036036020811015610ddf57600080fd5b81019080803563ffffffff169060200190929190505050613332565b005b348015610e0957600080fd5b50610e4960048036036040811015610e2057600080fd5b81019080803563ffffffff169060200190929190803560ff169060200190929190505050613337565b005b348015610e5757600080fd5b50610fac60048036036060811015610e6e57600080fd5b810190808035906020019092919080359060200190640100000000811115610e9557600080fd5b820183602082011115610ea757600080fd5b80359060200191846020830284011164010000000083111715610ec957600080fd5b919080806020026020016040519081016040528093929190818152602001838360200280828437600081840152601f19601f82011690508083019250505050505050919291929080359060200190640100000000811115610f2957600080fd5b820183602082011115610f3b57600080fd5b80359060200191846020830284011164010000000083111715610f5d57600080fd5b919080806020026020016040519081016040528093929190818152602001838360200280828437600081840152601f19601f82011690508083019250505050505050919291929050505061333c565b005b348015610fba57600080fd5b50610fc3613341565b6040518080602001828103825283818151815260200191508051906020019060200280838360005b83811015611006578082015181840152602081019050610feb565b505050509050019250505060405180910390f35b60006110246133c5565b60008061102f6133e7565b600160008763ffffffff1663ffffffff16815260200190815260200160002060830160009054906101000a900463ffffffff16600160008863ffffffff1663ffffffff168152602001908152602001600020608601600160008963ffffffff1663ffffffff16815260200190815260200160002060810160009054906101000a900460ff16600160008a63ffffffff1663ffffffff16815260200190815260200160002060820154600160008b63ffffffff1663ffffffff16815260200190815260200160002060840183600280602002604051908101604052809291908260028015611131576020028201915b81548152602001906001019080831161111d575b50505050509350806002806020026040519081016040528092919082600280156111a6576020028201915b8160009054906101000a900473ffffffffffffffffffffffffffffffffffffffff1673ffffffffffffffffffffffffffffffffffffffff168152602001906001019080831161115c575b505050505090509450945094509450945091939590929450565b600080600160008463ffffffff1663ffffffff16815260200190815260200160002060840160006002811015156111f357fe5b0160009054906101000a900473ffffffffffffffffffffffffffffffffffffffff16600160008563ffffffff1663ffffffff168152602001908152602001600020608401600160028110151561124557fe5b0160009054906101000a900473ffffffffffffffffffffffffffffffffffffffff1691509150915091565b6000600260009054906101000a900463ffffffff1663ffffffff166001600260009054906101000a900463ffffffff160163ffffffff161115156112b357600080fd5b60008054905060016000600260009054906101000a900463ffffffff1663ffffffff1663ffffffff16815260200190815260200160002060000160006101000a81548163ffffffff021916908363ffffffff1602179055508260016000600260009054906101000a900463ffffffff1663ffffffff1663ffffffff168152602001908152602001600020608d01819055503460016000600260009054906101000a900463ffffffff1663ffffffff1663ffffffff168152602001908152602001600020608201819055508160016000600260009054906101000a900463ffffffff1663ffffffff1663ffffffff16815260200190815260200160002060890160006002811015156113c057fe5b0190805190602001906113d4929190613409565b503360016000600260009054906101000a900463ffffffff1663ffffffff1663ffffffff168152602001908152602001600020608401600060028110151561141857fe5b0160006101000a81548173ffffffffffffffffffffffffffffffffffffffff021916908373ffffffffffffffffffffffffffffffffffffffff1602179055504260016000600260009054906101000a900463ffffffff1663ffffffff1663ffffffff168152602001908152602001600020608b0181905550600260009054906101000a900463ffffffff1660016000600260009054906101000a900463ffffffff1663ffffffff1663ffffffff16815260200190815260200160002060830160006101000a81548163ffffffff021916908363ffffffff1602179055506000600260009054906101000a900463ffffffff16908060018154018082558091505090600182039060005260206000209060089182820401919006600402909192909190916101000a81548163ffffffff021916908363ffffffff16021790555050600260009054906101000a900463ffffffff169050600260009054906101000a900463ffffffff1663ffffffff167fe086303ca1b48642b0b5ba69da2571f5e80c0316d829fef02a512f986d2dd97d60405160405180910390a26002600081819054906101000a900463ffffffff168092919060010191906101000a81548163ffffffff021916908363ffffffff1602179055505092915050565b600260009054906101000a900463ffffffff1663ffffffff168663ffffffff1610151561161f57600080fd5b600073ffffffffffffffffffffffffffffffffffffffff16600160008863ffffffff1663ffffffff168152602001908152602001600020608401600060028110151561166757fe5b0160009054906101000a900473ffffffffffffffffffffffffffffffffffffffff1673ffffffffffffffffffffffffffffffffffffffff16141515156116ac57600080fd5b600073ffffffffffffffffffffffffffffffffffffffff16600160008863ffffffff1663ffffffff16815260200190815260200160002060840160016002811015156116f457fe5b0160009054906101000a900473ffffffffffffffffffffffffffffffffffffffff1673ffffffffffffffffffffffffffffffffffffffff161415151561173957600080fd5b60003373ffffffffffffffffffffffffffffffffffffffff16600160008963ffffffff1663ffffffff168152602001908152602001600020608401600060028110151561178257fe5b0160009054906101000a900473ffffffffffffffffffffffffffffffffffffffff1673ffffffffffffffffffffffffffffffffffffffff16141561181957600160008863ffffffff1663ffffffff16815260200190815260200160002060840160016002811015156117f057fe5b0160009054906101000a900473ffffffffffffffffffffffffffffffffffffffff16905061186e565b600160008863ffffffff1663ffffffff168152602001908152602001600020608401600060028110151561184957fe5b0160009054906101000a900473ffffffffffffffffffffffffffffffffffffffff1690505b6000600160008963ffffffff1663ffffffff16815260200190815260200160002060840160006002811015156118a057fe5b0160009054906101000a900473ffffffffffffffffffffffffffffffffffffffff1673ffffffffffffffffffffffffffffffffffffffff163373ffffffffffffffffffffffffffffffffffffffff1614156119b55783600160008a63ffffffff1663ffffffff168152602001908152602001600020600101600160008b63ffffffff1663ffffffff16815260200190815260200160002060830160049054906101000a900463ffffffff1663ffffffff1660408110151561195d57fe5b019080519060200190611971929190613409565b506119ae86600160008b63ffffffff1663ffffffff16815260200190815260200160002060860160006002811015156119a657fe5b015487612ba0565b9050611a71565b83600160008a63ffffffff1663ffffffff168152602001908152602001600020604101600160008b63ffffffff1663ffffffff16815260200190815260200160002060830160049054906101000a900463ffffffff1663ffffffff16604081101515611a1d57fe5b019080519060200190611a31929190613409565b50611a6e86600160008b63ffffffff1663ffffffff1681526020019081526020016000206086016001600281101515611a6657fe5b015487612ba0565b90505b801515611c0657600160008963ffffffff1663ffffffff1681526020019081526020016000206084016000600281101515611aa857fe5b0160009054906101000a900473ffffffffffffffffffffffffffffffffffffffff1673ffffffffffffffffffffffffffffffffffffffff163373ffffffffffffffffffffffffffffffffffffffff161415611b3e57600c600160008a63ffffffff1663ffffffff16815260200190815260200160002060810160006101000a81548160ff021916908360ff160217905550611c01565b600160008963ffffffff1663ffffffff1681526020019081526020016000206084016001600281101515611b6e57fe5b0160009054906101000a900473ffffffffffffffffffffffffffffffffffffffff1673ffffffffffffffffffffffffffffffffffffffff163373ffffffffffffffffffffffffffffffffffffffff161415611c0057600b600160008a63ffffffff1663ffffffff16815260200190815260200160002060810160006101000a81548160ff021916908360ff1602179055505b5b611cad565b8663ffffffff168273ffffffffffffffffffffffffffffffffffffffff168963ffffffff167ffcfcf45d1edd85af65e430826d556c55a4583a4a3ad9af2c4a8a6391120ad55d600160008d63ffffffff1663ffffffff16815260200190815260200160002060830160049054906101000a900463ffffffff1687604051808363ffffffff1663ffffffff168152602001821515151581526020019250505060405180910390a45b86600160008a63ffffffff1663ffffffff16815260200190815260200160002060830160046101000a81548163ffffffff021916908363ffffffff1602179055505050505050505050565b6000600160008363ffffffff1663ffffffff168152602001908152602001600020608b01549050919050565b600260009054906101000a900463ffffffff1663ffffffff168263ffffffff16101515611d5057600080fd5b600073ffffffffffffffffffffffffffffffffffffffff16600160008463ffffffff1663ffffffff1681526020019081526020016000206084016000600281101515611d9857fe5b0160009054906101000a900473ffffffffffffffffffffffffffffffffffffffff1673ffffffffffffffffffffffffffffffffffffffff1614151515611ddd57600080fd5b600073ffffffffffffffffffffffffffffffffffffffff16600160008463ffffffff1663ffffffff1681526020019081526020016000206084016001600281101515611e2557fe5b0160009054906101000a900473ffffffffffffffffffffffffffffffffffffffff1673ffffffffffffffffffffffffffffffffffffffff1614151515611e6a57600080fd5b60003373ffffffffffffffffffffffffffffffffffffffff16600160008563ffffffff1663ffffffff1681526020019081526020016000206084016000600281101515611eb357fe5b0160009054906101000a900473ffffffffffffffffffffffffffffffffffffffff1673ffffffffffffffffffffffffffffffffffffffff161415611f4a57600160008463ffffffff1663ffffffff1681526020019081526020016000206084016001600281101515611f2157fe5b0160009054906101000a900473ffffffffffffffffffffffffffffffffffffffff169050611f9f565b600160008463ffffffff1663ffffffff1681526020019081526020016000206084016000600281101515611f7a57fe5b0160009054906101000a900473ffffffffffffffffffffffffffffffffffffffff1690505b81600160008563ffffffff1663ffffffff16815260200190815260200160002060830160046101000a81548163ffffffff021916908363ffffffff1602179055508163ffffffff168173ffffffffffffffffffffffffffffffffffffffff168463ffffffff167ffcfcf45d1edd85af65e430826d556c55a4583a4a3ad9af2c4a8a6391120ad55d60406000604051808363ffffffff168152602001821515151581526020019250505060405180910390a4505050565b600260009054906101000a900463ffffffff1663ffffffff168363ffffffff1610151561208157600080fd5b3373ffffffffffffffffffffffffffffffffffffffff16600160008563ffffffff1663ffffffff16815260200190815260200160002060840160006002811015156120c857fe5b0160009054906101000a900473ffffffffffffffffffffffffffffffffffffffff1673ffffffffffffffffffffffffffffffffffffffff1614151561210c57600080fd5b600073ffffffffffffffffffffffffffffffffffffffff16600160008563ffffffff1663ffffffff168152602001908152602001600020608401600160028110151561215457fe5b0160009054906101000a900473ffffffffffffffffffffffffffffffffffffffff1673ffffffffffffffffffffffffffffffffffffffff161415151561219957600080fd5b6000600160008563ffffffff1663ffffffff16815260200190815260200160002060810160009054906101000a900460ff1660ff161415156121da57600080fd5b60006121e68383612a7d565b9050600160008563ffffffff1663ffffffff168152602001908152602001600020608d01548114151561233a57600c600160008663ffffffff1663ffffffff16815260200190815260200160002060810160006101000a81548160ff021916908360ff1602179055503373ffffffffffffffffffffffffffffffffffffffff168463ffffffff167f429f8719638cba0a0c2c2f5abdaed73702d21228925bbda0ac0a575bbfed444b60405160405180910390a3600160008563ffffffff1663ffffffff16815260200190815260200160002060840160016002811015156122c957fe5b0160009054906101000a900473ffffffffffffffffffffffffffffffffffffffff1673ffffffffffffffffffffffffffffffffffffffff168463ffffffff167f429f8719638cba0a0c2c2f5abdaed73702d21228925bbda0ac0a575bbfed444b60405160405180910390a350612475565b42600160008663ffffffff1663ffffffff168152602001908152602001600020608b01819055506005600160008663ffffffff1663ffffffff16815260200190815260200160002060810160006101000a81548160ff021916908360ff16021790555082600160008663ffffffff1663ffffffff168152602001908152602001600020608e0160016101000a81548160ff021916908360ff160217905550600160008563ffffffff1663ffffffff168152602001908152602001600020608401600160028110151561240857fe5b0160009054906101000a900473ffffffffffffffffffffffffffffffffffffffff1673ffffffffffffffffffffffffffffffffffffffff168463ffffffff167f8f2cb99bc5461a7abee637666a4af889ad4fc6e24dbfd0e218c1305a6379bf7a60405160405180910390a3505b505050565b60038054600181600116156101000203166002900480601f0160208091040260200160405190810160405280929190818152602001828054600181600116156101000203166002900480156125105780601f106124e557610100808354040283529160200191612510565b820191906000526020600020905b8154815290600101906020018083116124f357829003601f168201915b505050505081565b806003908051906020019061252e929190613409565b5050565b6000600160008463ffffffff1663ffffffff168152602001908152602001600020608401600060028110151561256457fe5b0160009054906101000a900473ffffffffffffffffffffffffffffffffffffffff1673ffffffffffffffffffffffffffffffffffffffff163373ffffffffffffffffffffffffffffffffffffffff16148061263b5750600160008463ffffffff1663ffffffff16815260200190815260200160002060840160016002811015156125ea57fe5b0160009054906101000a900473ffffffffffffffffffffffffffffffffffffffff1673ffffffffffffffffffffffffffffffffffffffff163373ffffffffffffffffffffffffffffffffffffffff16145b151561264657600080fd5b6005600160008563ffffffff1663ffffffff16815260200190815260200160002060810160009054906101000a900460ff1660ff1614151561268757600080fd5b6000829050600160008563ffffffff1663ffffffff16815260200190815260200160002060840160006002811015156126bc57fe5b0160009054906101000a900473ffffffffffffffffffffffffffffffffffffffff1673ffffffffffffffffffffffffffffffffffffffff163373ffffffffffffffffffffffffffffffffffffffff16141561274c5782600160008663ffffffff1663ffffffff168152602001908152602001600020608601600060028110151561274257fe5b0181905550612783565b82600160008663ffffffff1663ffffffff168152602001908152602001600020608601600160028110151561277d57fe5b01819055505b6000600102600160008663ffffffff1663ffffffff16815260200190815260200160002060860160006002811015156127b857fe5b0154141580156127fd57506000600102600160008663ffffffff1663ffffffff16815260200190815260200160002060860160016002811015156127f857fe5b015414155b15612a7357600060018060008763ffffffff1663ffffffff168152602001908152602001600020608e0160009054906101000a900460ff16600160008863ffffffff1663ffffffff168152602001908152602001600020608e0160019054906101000a900460ff16181660ff1614156129725760018060008663ffffffff1663ffffffff16815260200190815260200160002060810160006101000a81548160ff021916908360ff16021790555060018060008663ffffffff1663ffffffff16815260200190815260200160002060880181905550600160008563ffffffff1663ffffffff168152602001908152602001600020608401600160028110151561290257fe5b0160009054906101000a900473ffffffffffffffffffffffffffffffffffffffff1673ffffffffffffffffffffffffffffffffffffffff168463ffffffff167f6d8a1d2dfca1665cabe339d00b017fc53268dbd538c20c3cefc2ce4076ff928a60405160405180910390a3612a72565b6002600160008663ffffffff1663ffffffff16815260200190815260200160002060810160006101000a81548160ff021916908360ff1602179055506002600160008663ffffffff1663ffffffff16815260200190815260200160002060880181905550600160008563ffffffff1663ffffffff1681526020019081526020016000206084016001600281101515612a0657fe5b0160009054906101000a900473ffffffffffffffffffffffffffffffffffffffff1673ffffffffffffffffffffffffffffffffffffffff168463ffffffff167f6d8a1d2dfca1665cabe339d00b017fc53268dbd538c20c3cefc2ce4076ff928a60405160405180910390a35b5b8091505092915050565b600073__LibString_____________________________636474c5b884846040518363ffffffff167c0100000000000000000000000000000000000000000000000000000000028152600401808360ff1660ff16815260200180602001828103825283818151815260200191508051906020019080838360005b83811015612b12578082015181840152602081019050612af7565b50505050905090810190601f168015612b3f5780820380516001836020036101000a031916815260200191505b50935050505060206040518083038186803b158015612b5d57600080fd5b505af4158015612b71573d6000803e3d6000fd5b505050506040513d6020811015612b8757600080fd5b8101908080519060200190929190505050905092915050565b60008082905060008090505b8551811015612c4f5760008682815181101515612bc557fe5b90602001906020020151905080831015612c0f5782816040516020018083815260200182815260200192505050604051602081830303815290604052805190602001209250612c41565b808360405160200180838152602001828152602001925050506040516020818303038152906040528051906020012092505b508080600101915050612bac565b508381149150509392505050565b6000806000606080600160008763ffffffff1663ffffffff16815260200190815260200160002060830160009054906101000a900463ffffffff16600160008863ffffffff1663ffffffff16815260200190815260200160002060810160009054906101000a900460ff16600160008963ffffffff1663ffffffff16815260200190815260200160002060820154600160008a63ffffffff1663ffffffff1681526020019081526020016000206089016000600281101515612d1b57fe5b01600160008b63ffffffff1663ffffffff1681526020019081526020016000206089016001600281101515612d4c57fe5b01818054600181600116156101000203166002900480601f016020809104026020016040519081016040528092919081815260200182805460018160011615610100020316600290048015612de25780601f10612db757610100808354040283529160200191612de2565b820191906000526020600020905b815481529060010190602001808311612dc557829003601f168201915b50505050509150808054600181600116156101000203166002900480601f016020809104026020016040519081016040528092919081815260200182805460018160011615610100020316600290048015612e7e5780601f10612e5357610100808354040283529160200191612e7e565b820191906000526020600020905b815481529060010190602001808311612e6157829003601f168201915b505050505090509450945094509450945091939590929450565b600092915050565b600260009054906101000a900463ffffffff1663ffffffff168363ffffffff16101515612ecc57600080fd5b600073ffffffffffffffffffffffffffffffffffffffff16600160008563ffffffff1663ffffffff1681526020019081526020016000206084016000600281101515612f1457fe5b0160009054906101000a900473ffffffffffffffffffffffffffffffffffffffff1673ffffffffffffffffffffffffffffffffffffffff1614151515612f5957600080fd5b600160008463ffffffff1663ffffffff1681526020019081526020016000206082015434141515612f8957600080fd5b600073ffffffffffffffffffffffffffffffffffffffff16600160008563ffffffff1663ffffffff1681526020019081526020016000206084016001600281101515612fd157fe5b0160009054906101000a900473ffffffffffffffffffffffffffffffffffffffff1673ffffffffffffffffffffffffffffffffffffffff1614151561301557600080fd5b6000600160008563ffffffff1663ffffffff16815260200190815260200160002060810160009054906101000a900460ff1660ff1614151561305657600080fd5b81600160008563ffffffff1663ffffffff168152602001908152602001600020608e0160006101000a81548160ff021916908360ff16021790555080600160008563ffffffff1663ffffffff16815260200190815260200160002060890160016002811015156130c257fe5b0190805190602001906130d6929190613409565b5033600160008563ffffffff1663ffffffff168152602001908152602001600020608401600160028110151561310857fe5b0160006101000a81548173ffffffffffffffffffffffffffffffffffffffff021916908373ffffffffffffffffffffffffffffffffffffffff16021790555042600160008563ffffffff1663ffffffff168152602001908152602001600020608b01819055506000600160008563ffffffff1663ffffffff16815260200190815260200160002060000160009054906101000a900463ffffffff16905060006001600080549050038154811015156131bc57fe5b90600052602060002090600891828204019190066004029054906101000a900463ffffffff1660008263ffffffff168154811015156131f757fe5b90600052602060002090600891828204019190066004026101000a81548163ffffffff021916908363ffffffff16021790555080600160008663ffffffff1663ffffffff16815260200190815260200160002060000160006101000a81548163ffffffff021916908363ffffffff16021790555060008054809190600190036132809190613489565b50600160008563ffffffff1663ffffffff16815260200190815260200160002060840160006002811015156132b157fe5b0160009054906101000a900473ffffffffffffffffffffffffffffffffffffffff1673ffffffffffffffffffffffffffffffffffffffff167fefe144453900c4d0cd4aef4f468771772ebc548b1253de88ff1a1291b7a5785085604051808263ffffffff1663ffffffff16815260200191505060405180910390a250505050565b600080fd5b600080fd5b505050565b606060008054806020026020016040519081016040528092919081815260200182805480156133bb57602002820191906000526020600020906000905b82829054906101000a900463ffffffff1663ffffffff168152602001906004019060208260030104928301926001038202915080841161337e5790505b5050505050905090565b6040805190810160405280600290602082028038833980820191505090505090565b6040805190810160405280600290602082028038833980820191505090505090565b828054600181600116156101000203166002900490600052602060002090601f016020900481019282601f1061344a57805160ff1916838001178555613478565b82800160010185558215613478579182015b8281111561347757825182559160200191906001019061345c565b5b50905061348591906134c3565b5090565b8154818355818111156134be5760070160089004816007016008900483600052602060002091820191016134bd91906134c3565b5b505050565b6134e591905b808211156134e15760008160009055506001016134c9565b5090565b9056fea165627a7a72305820a5ca3eb19866bba8d4a23cfc76c5ddb6df83992ac9eadc7a91ab9e271887241c0029",
  "source": "pragma solidity ^0.5.0;\n\nimport \"./LibString.sol\";\n\ncontract Battleships {\n\n\t// Events\n\n    event GameCreated(uint32 indexed gameIdx);\n    event GameAccepted(uint32 gameIdx, address indexed opponent);\n    event GameConfirmed(uint32 indexed gameIdx, address indexed opponent);\n    event GameStarted(uint32 indexed gameIdx, address indexed opponent);\n    event PlayerAttacked(uint32 indexed gameIdx, address indexed opponent, uint32 indexed target, uint32 prevTarget, bool isHit);\n    event GameEnded(uint32 indexed gameIdx, address indexed opponent);\n    \n\n\n   \n    \n    \n\n    function getOpenGames() public view returns (uint32[] memory){\n        return openGames;\n    }\n\n    function getGameInfo(uint32 gameIdx) public view returns (uint32 gameIndex, uint8 status, uint amount, string memory nick1, string memory nick2) {\n        return (\n        \tgamesData[gameIdx].gameIndex,\n            gamesData[gameIdx].status,\n            gamesData[gameIdx].amount,\n            gamesData[gameIdx].nicks[0],\n            gamesData[gameIdx].nicks[1]\n        );\n    }\n\n    function getGameTimestamp(uint32 gameIdx) public view \n    returns (uint lastTransaction) {\n        return (gamesData[gameIdx].lastTransaction);\n    }\n\n    function getGamePlayers(uint32 gameIdx) public view \n    returns (address player1, address player2) {\n        return (\n            gamesData[gameIdx].players[0],\n            gamesData[gameIdx].players[1]\n        );\n    }\n\n    function createGame(bytes32 randomNumberHash, string memory nick) public payable returns (uint32 gameIdx) {\n        require(nextGameIdx + 1 > nextGameIdx);\n        gamesData[nextGameIdx].openListIndex = uint32(openGames.length);\n        gamesData[nextGameIdx].creatorHash = randomNumberHash;\n        gamesData[nextGameIdx].amount = msg.value;\n        gamesData[nextGameIdx].nicks[0] = nick;\n        gamesData[nextGameIdx].players[0] = msg.sender;\n        gamesData[nextGameIdx].lastTransaction = now;\n        gamesData[nextGameIdx].gameIndex = nextGameIdx;\n        openGames.push(nextGameIdx);\n\n        gameIdx = nextGameIdx;\n        emit GameCreated(nextGameIdx);\n        nextGameIdx++;\n    }\n\n    function initialAttack(uint32 gameIdx, uint32 target) public{\n        require(gameIdx < nextGameIdx);\n        require(gamesData[gameIdx].players[0] != address(0x0));\n        require(gamesData[gameIdx].players[1] != address(0x0));\n\n        address opponent;\n        if(gamesData[gameIdx].players[0] == msg.sender)\n            opponent = gamesData[gameIdx].players[1];\n        else opponent = gamesData[gameIdx].players[0];\n\n        gamesData[gameIdx].lastTarget = target;\n        emit PlayerAttacked(gameIdx, opponent, target,64,false);\n\n        \n    }\n\n    function attack(uint32 gameIdx, uint32 attackTarget, bytes32[] memory proof, bytes32 leaf, string memory lastTargetProof, bool isHit) public{\n        require(gameIdx < nextGameIdx);\n        require(gamesData[gameIdx].players[0] != address(0x0));\n        require(gamesData[gameIdx].players[1] != address(0x0));\n\n        address opponent;\n        if(gamesData[gameIdx].players[0] == msg.sender)\n            opponent = gamesData[gameIdx].players[1];\n        else opponent = gamesData[gameIdx].players[0];\n\n\n        bool isProofValid;\n\n        if(msg.sender == gamesData[gameIdx].players[0]){\n            gamesData[gameIdx].player1Cells[gamesData[gameIdx].lastTarget]  = lastTargetProof;\n            isProofValid = checkProof(proof, gamesData[gameIdx].merkleRoots[0], leaf);\n        }\n        else{\n            gamesData[gameIdx].player2Cells[gamesData[gameIdx].lastTarget]  = lastTargetProof;\n            isProofValid = checkProof(proof, gamesData[gameIdx].merkleRoots[1], leaf);\n        }\n\n        if(!isProofValid){\n            if(msg.sender == gamesData[gameIdx].players[0])\n                gamesData[gameIdx].status = 12;\n            else if(msg.sender == gamesData[gameIdx].players[1])\n                gamesData[gameIdx].status = 11;\n        }\n        else\n        \n\n        emit PlayerAttacked(gameIdx, opponent, attackTarget,gamesData[gameIdx].lastTarget, isHit);\n\n        gamesData[gameIdx].lastTarget = attackTarget;\n    }\n\n    \n    function acceptGame(uint32 gameIdx, uint8 randomNumber, string memory nick) public payable {\n        require(gameIdx < nextGameIdx);\n        require(gamesData[gameIdx].players[0] != address(0x0));\n        require(msg.value == gamesData[gameIdx].amount);\n        require(gamesData[gameIdx].players[1] == address(0x0));\n        require(gamesData[gameIdx].status == 0);\n\n        gamesData[gameIdx].guestRandomNumber = randomNumber;\n        gamesData[gameIdx].nicks[1] = nick;\n        gamesData[gameIdx].players[1] = msg.sender;\n        gamesData[gameIdx].lastTransaction = now;\n\n        \n\n        // Remove from the available list (unordered)\n        uint32 idxToDelete = uint32(gamesData[gameIdx].openListIndex);\n        openGames[idxToDelete] = openGames[openGames.length - 1];\n        gamesData[gameIdx].openListIndex = idxToDelete;\n        openGames.length--;\n\n        emit GameAccepted(gameIdx, gamesData[gameIdx].players[0]);\n    }\n\n   \n\n\n    function markPosition(uint32 gameIdx, uint8 cell) public {\n        revert();\n    }\n\n    function withdraw(uint32 gameIdx) public {\n        revert();\n    }\n\n    // PUBLIC HELPER FUNCTIONS\n    \n    function saltedHash(uint8 randomNumber, string memory salt) public pure returns (bytes32) {\n        return LibString.saltedHash(randomNumber, salt);\n    }\n\n    // DEFAULT\n    \n    function () external payable {\n        revert();\n    }\n\n    \n\n    struct Game{\n        uint32 openListIndex;\n        string[64] player1Cells;\n        string[64] player2Cells;\n        uint8 status;\n        uint amount;\n        uint32 gameIndex;\n\n        uint32 lastTarget;\n        address[2] players;\n        bytes32[2] merkleRoots;\n        uint startingPlayer;\n        string[2] nicks;\n        uint lastTransaction;\n        bool[2] withdrawn;\n        bytes32 creatorHash;\n        uint8 guestRandomNumber;\n        uint8 creatorRandomNumber;\n    }\n\n    uint32[] openGames;\n    mapping(uint32 => Game) gamesData;\n    uint32 nextGameIdx;\n\n\n    string public myString = \"Hello World\";\n\n    function set(string memory x) public {\n        myString = x;\n    }\n\n    // Check Merkle Tree proof ( merkle proof = merkle path)\n    function checkProof(bytes32[] memory proof, bytes32 root, bytes32 leaf) pure public returns (bool) {\n        bytes32 computedHash = leaf;\n\n        for (uint256 i = 0; i < proof.length; i++) {\n            bytes32 proofElement = proof[i];\n\n            if (computedHash < proofElement) {\n                // Hash(current computed hash + current element of the proof)\n                computedHash = keccak256(abi.encodePacked(computedHash, proofElement));\n            } else {\n                // Hash(current element of the proof + current computed hash)\n                computedHash = keccak256(abi.encodePacked(proofElement, computedHash));\n            }\n        }\n\n        // Check if the computed hash (root) is equal to the provided root\n        return computedHash == root;\n    }\n\n    function submitMerkleRoot(uint32 gameIdx, bytes32 root) public returns(bytes32){\n        require(msg.sender == gamesData[gameIdx].players[0] || msg.sender == gamesData[gameIdx].players[1]);\n        require(gamesData[gameIdx].status == 5);\n\n        bytes32 root1 = root;\n        \n        \n        if(msg.sender == gamesData[gameIdx].players[0])\n            gamesData[gameIdx].merkleRoots[0] = root;\n            else\n            gamesData[gameIdx].merkleRoots[1] = root;\n\n        if(gamesData[gameIdx].merkleRoots[0] != 0x0 && gamesData[gameIdx].merkleRoots[1] != 0x0){\n             //Define the starting player\n            if((gamesData[gameIdx].creatorRandomNumber ^ gamesData[gameIdx].guestRandomNumber) & 0x01 == 0){\n                gamesData[gameIdx].status = 1;\n                gamesData[gameIdx].startingPlayer = 1;\n                emit GameStarted(gameIdx, gamesData[gameIdx].players[1]);\n        } \n        else {\n                gamesData[gameIdx].status = 2;\n                gamesData[gameIdx].startingPlayer = 2;\n                emit GameStarted(gameIdx, gamesData[gameIdx].players[1]);\n        }\n        }\n        return root1;\n    }\n\n    function getTestGameInfo(uint32 gameIdx) public view returns (uint32 gameIndex,bytes32[2] memory merkleRoots, uint8 status, uint amount, address[2] memory players) {\n        return (\n        \tgamesData[gameIdx].gameIndex,\n            gamesData[gameIdx].merkleRoots,\n            gamesData[gameIdx].status,\n            gamesData[gameIdx].amount,\n            gamesData[gameIdx].players\n           \n            \n        );\n    }\n\n\n\n    function confirmGame(uint32 gameIdx, uint8 revealedRandomNumber, string memory revealedSalt) public {\n        require(gameIdx < nextGameIdx);\n        require(gamesData[gameIdx].players[0] == msg.sender);\n        require(gamesData[gameIdx].players[1] != address(0x0));\n        require(gamesData[gameIdx].status == 0);\n\n        bytes32 computedHash = saltedHash(revealedRandomNumber, revealedSalt);\n        if(computedHash != gamesData[gameIdx].creatorHash){\n            gamesData[gameIdx].status = 12;\n            emit GameEnded(gameIdx, msg.sender);\n            emit GameEnded(gameIdx, gamesData[gameIdx].players[1]);\n            return;\n        }\n\n        gamesData[gameIdx].lastTransaction = now;\n\n        gamesData[gameIdx].status = 5;\n\n\n        gamesData[gameIdx].creatorRandomNumber = revealedRandomNumber;\n       \n        emit GameConfirmed(gameIdx, gamesData[gameIdx].players[1]);\n       \n    }\n\n    function validateDesk(uint8[] memory rows, uint8[] memory cols) public returns(bool){\n        \n    }\n\n    function playerReady(uint gameIdx, uint8[] memory rows, uint8[] memory cols) public {\n    \t\n    }\n}\n\n\t\n\n",
  "sourcePath": "/home/maks/drizzle-react-tutorial/blockchain/contracts/Battleships.sol",
  "compiler": {
    "name": "solc",
    "version": "0.5.0+commit.1d4f565a.Emscripten.clang"
  },
  "schemaVersion": "3.0.2",
  "updatedAt": "2019-03-05T21:47:10.878Z",
  "devdoc": {
    "methods": {}
  },
  "userdoc": {
    "methods": {}
  }
}