{
  "contractName": "Battleships",
  "abi": [
    {
      "constant": true,
      "inputs": [],
      "name": "myString",
      "outputs": [
        {
          "name": "",
          "type": "string"
        }
      ],
      "payable": false,
      "stateMutability": "view",
      "type": "function",
      "signature": "0x492bfa18"
    },
    {
      "payable": true,
      "stateMutability": "payable",
      "type": "fallback"
    },
    {
      "anonymous": false,
      "inputs": [
        {
          "indexed": true,
          "name": "gameIdx",
          "type": "uint32"
        }
      ],
      "name": "GameCreated",
      "type": "event",
      "signature": "0xe086303ca1b48642b0b5ba69da2571f5e80c0316d829fef02a512f986d2dd97d"
    },
    {
      "anonymous": false,
      "inputs": [
        {
          "indexed": true,
          "name": "gameIdx",
          "type": "uint32"
        },
        {
          "indexed": true,
          "name": "opponent",
          "type": "address"
        }
      ],
      "name": "GameAccepted",
      "type": "event",
      "signature": "0xefe144453900c4d0cd4aef4f468771772ebc548b1253de88ff1a1291b7a57850"
    },
    {
      "anonymous": false,
      "inputs": [
        {
          "indexed": true,
          "name": "gameIdx",
          "type": "uint32"
        },
        {
          "indexed": true,
          "name": "opponent",
          "type": "address"
        }
      ],
      "name": "GameConfirmed",
      "type": "event",
      "signature": "0x8f2cb99bc5461a7abee637666a4af889ad4fc6e24dbfd0e218c1305a6379bf7a"
    },
    {
      "anonymous": false,
      "inputs": [
        {
          "indexed": true,
          "name": "gameIdx",
          "type": "uint32"
        },
        {
          "indexed": true,
          "name": "opponent",
          "type": "address"
        }
      ],
      "name": "GameStarted",
      "type": "event",
      "signature": "0x6d8a1d2dfca1665cabe339d00b017fc53268dbd538c20c3cefc2ce4076ff928a"
    },
    {
      "anonymous": false,
      "inputs": [
        {
          "indexed": true,
          "name": "gameIdx",
          "type": "uint32"
        },
        {
          "indexed": true,
          "name": "opponent",
          "type": "address"
        }
      ],
      "name": "PositionMarked",
      "type": "event",
      "signature": "0x7c1c0c6b1708045c68283431dcc9a3e573d5913b92a88cb614662851d4b67cfe"
    },
    {
      "anonymous": false,
      "inputs": [
        {
          "indexed": true,
          "name": "gameIdx",
          "type": "uint32"
        },
        {
          "indexed": true,
          "name": "opponent",
          "type": "address"
        }
      ],
      "name": "GameEnded",
      "type": "event",
      "signature": "0x429f8719638cba0a0c2c2f5abdaed73702d21228925bbda0ac0a575bbfed444b"
    },
    {
      "constant": true,
      "inputs": [],
      "name": "getOpenGames",
      "outputs": [
        {
          "name": "",
          "type": "uint32[]"
        }
      ],
      "payable": false,
      "stateMutability": "view",
      "type": "function",
      "signature": "0xe75d7e3e"
    },
    {
      "constant": true,
      "inputs": [
        {
          "name": "gameIdx",
          "type": "uint32"
        }
      ],
      "name": "getGameInfo",
      "outputs": [
        {
          "name": "gameIndex",
          "type": "uint32"
        },
        {
          "name": "cells",
          "type": "uint8[]"
        },
        {
          "name": "status",
          "type": "uint8"
        },
        {
          "name": "amount",
          "type": "uint256"
        },
        {
          "name": "nick1",
          "type": "string"
        },
        {
          "name": "nick2",
          "type": "string"
        }
      ],
      "payable": false,
      "stateMutability": "view",
      "type": "function",
      "signature": "0x848a2351"
    },
    {
      "constant": true,
      "inputs": [
        {
          "name": "gameIdx",
          "type": "uint32"
        }
      ],
      "name": "getGameTimestamp",
      "outputs": [
        {
          "name": "lastTransaction",
          "type": "uint256"
        }
      ],
      "payable": false,
      "stateMutability": "view",
      "type": "function",
      "signature": "0x351638b0"
    },
    {
      "constant": true,
      "inputs": [
        {
          "name": "gameIdx",
          "type": "uint32"
        }
      ],
      "name": "getGamePlayers",
      "outputs": [
        {
          "name": "player1",
          "type": "address"
        },
        {
          "name": "player2",
          "type": "address"
        }
      ],
      "payable": false,
      "stateMutability": "view",
      "type": "function",
      "signature": "0x0cc99ca2"
    },
    {
      "constant": false,
      "inputs": [
        {
          "name": "randomNumberHash",
          "type": "bytes32"
        },
        {
          "name": "nick",
          "type": "string"
        }
      ],
      "name": "createGame",
      "outputs": [
        {
          "name": "gameIdx",
          "type": "uint32"
        }
      ],
      "payable": true,
      "stateMutability": "payable",
      "type": "function",
      "signature": "0x22719305"
    },
    {
      "constant": false,
      "inputs": [
        {
          "name": "gameIdx",
          "type": "uint32"
        },
        {
          "name": "randomNumber",
          "type": "uint8"
        },
        {
          "name": "nick",
          "type": "string"
        }
      ],
      "name": "acceptGame",
      "outputs": [],
      "payable": true,
      "stateMutability": "payable",
      "type": "function",
      "signature": "0xa97d07b0"
    },
    {
      "constant": false,
      "inputs": [
        {
          "name": "gameIdx",
          "type": "uint32"
        },
        {
          "name": "cell",
          "type": "uint8"
        }
      ],
      "name": "markPosition",
      "outputs": [],
      "payable": false,
      "stateMutability": "nonpayable",
      "type": "function",
      "signature": "0xb60d0e9b"
    },
    {
      "constant": false,
      "inputs": [
        {
          "name": "gameIdx",
          "type": "uint32"
        }
      ],
      "name": "withdraw",
      "outputs": [],
      "payable": false,
      "stateMutability": "nonpayable",
      "type": "function",
      "signature": "0xaa9224cd"
    },
    {
      "constant": true,
      "inputs": [
        {
          "name": "randomNumber",
          "type": "uint8"
        },
        {
          "name": "salt",
          "type": "string"
        }
      ],
      "name": "saltedHash",
      "outputs": [
        {
          "name": "",
          "type": "bytes32"
        }
      ],
      "payable": false,
      "stateMutability": "pure",
      "type": "function",
      "signature": "0x6474c5b8"
    },
    {
      "constant": false,
      "inputs": [
        {
          "name": "x",
          "type": "string"
        }
      ],
      "name": "set",
      "outputs": [],
      "payable": false,
      "stateMutability": "nonpayable",
      "type": "function",
      "signature": "0x4ed3885e"
    },
    {
      "constant": true,
      "inputs": [
        {
          "name": "proof",
          "type": "bytes32[]"
        },
        {
          "name": "root",
          "type": "bytes32"
        },
        {
          "name": "leaf",
          "type": "bytes32"
        }
      ],
      "name": "checkProof",
      "outputs": [
        {
          "name": "",
          "type": "bool"
        }
      ],
      "payable": false,
      "stateMutability": "pure",
      "type": "function",
      "signature": "0x72a52851"
    },
    {
      "constant": false,
      "inputs": [
        {
          "name": "gameIdx",
          "type": "uint32"
        },
        {
          "name": "root",
          "type": "bytes32"
        }
      ],
      "name": "submitMerkleRoot",
      "outputs": [
        {
          "name": "",
          "type": "bytes32"
        }
      ],
      "payable": false,
      "stateMutability": "nonpayable",
      "type": "function",
      "signature": "0x62c78a27"
    },
    {
      "constant": true,
      "inputs": [
        {
          "name": "gameIdx",
          "type": "uint32"
        }
      ],
      "name": "getTestGameInfo",
      "outputs": [
        {
          "name": "gameIndex",
          "type": "uint32"
        },
        {
          "name": "cells",
          "type": "uint8[]"
        },
        {
          "name": "merkleRoots",
          "type": "bytes32[2]"
        },
        {
          "name": "status",
          "type": "uint8"
        },
        {
          "name": "amount",
          "type": "uint256"
        },
        {
          "name": "players",
          "type": "address[2]"
        }
      ],
      "payable": false,
      "stateMutability": "view",
      "type": "function",
      "signature": "0x076c32db"
    },
    {
      "constant": false,
      "inputs": [
        {
          "name": "gameIdx",
          "type": "uint32"
        },
        {
          "name": "revealedRandomNumber",
          "type": "uint8"
        },
        {
          "name": "revealedSalt",
          "type": "string"
        }
      ],
      "name": "confirmGame",
      "outputs": [],
      "payable": false,
      "stateMutability": "nonpayable",
      "type": "function",
      "signature": "0x43b95d7b"
    },
    {
      "constant": false,
      "inputs": [
        {
          "name": "rows",
          "type": "uint8[]"
        },
        {
          "name": "cols",
          "type": "uint8[]"
        }
      ],
      "name": "validateDesk",
      "outputs": [
        {
          "name": "",
          "type": "bool"
        }
      ],
      "payable": false,
      "stateMutability": "nonpayable",
      "type": "function",
      "signature": "0x8e839527"
    },
    {
      "constant": false,
      "inputs": [
        {
          "name": "gameIdx",
          "type": "uint256"
        },
        {
          "name": "rows",
          "type": "uint8[]"
        },
        {
          "name": "cols",
          "type": "uint8[]"
        }
      ],
      "name": "playerReady",
      "outputs": [],
      "payable": false,
      "stateMutability": "nonpayable",
      "type": "function",
      "signature": "0xc27db794"
    }
  ],
  "bytecode": "0x60806040526040805190810160405280600b81526020017f48656c6c6f20576f726c64000000000000000000000000000000000000000000815250600390805190602001906200005192919062000066565b503480156200005f57600080fd5b5062000115565b828054600181600116156101000203166002900490600052602060002090601f016020900481019282601f10620000a957805160ff1916838001178555620000da565b82800160010185558215620000da579182015b82811115620000d9578251825591602001919060010190620000bc565b5b509050620000e99190620000ed565b5090565b6200011291905b808211156200010e576000816000905550600101620000f4565b5090565b90565b612aa180620001256000396000f3fe6080604052600436106100f1576000357c0100000000000000000000000000000000000000000000000000000000900463ffffffff168063076c32db146100f65780630cc99ca21461021157806322719305146102c5578063351638b0146103aa57806343b95d7b146103ff578063492bfa18146104e45780634ed3885e1461057457806362c78a271461063c5780636474c5b81461069b57806372a5285114610784578063848a2351146108755780638e83952714610a0a578063a97d07b014610b7b578063aa9224cd14610c53578063b60d0e9b14610c94578063c27db79414610ce2578063e75d7e3e14610e45575b600080fd5b34801561010257600080fd5b506101356004803603602081101561011957600080fd5b81019080803563ffffffff169060200190929190505050610eb1565b604051808763ffffffff1663ffffffff1681526020018060200186600260200280838360005b8381101561017657808201518184015260208101905061015b565b505050509050018560ff1660ff16815260200184815260200183600260200280838360005b838110156101b657808201518184015260208101905061019b565b50505050905001828103825287818151815260200191508051906020019060200280838360005b838110156101f85780820151818401526020810190506101dd565b5050505090500197505050505050505060405180910390f35b34801561021d57600080fd5b506102506004803603602081101561023457600080fd5b81019080803563ffffffff1690602001909291905050506110f5565b604051808373ffffffffffffffffffffffffffffffffffffffff1673ffffffffffffffffffffffffffffffffffffffff1681526020018273ffffffffffffffffffffffffffffffffffffffff1673ffffffffffffffffffffffffffffffffffffffff1681526020019250505060405180910390f35b610388600480360360408110156102db57600080fd5b81019080803590602001909291908035906020019064010000000081111561030257600080fd5b82018360208201111561031457600080fd5b8035906020019184600183028401116401000000008311171561033657600080fd5b91908080601f016020809104026020016040519081016040528093929190818152602001838380828437600081840152601f19601f8201169050808301925050505050505091929192905050506111a5565b604051808263ffffffff1663ffffffff16815260200191505060405180910390f35b3480156103b657600080fd5b506103e9600480360360208110156103cd57600080fd5b81019080803563ffffffff169060200190929190505050611528565b6040518082815260200191505060405180910390f35b34801561040b57600080fd5b506104e26004803603606081101561042257600080fd5b81019080803563ffffffff169060200190929190803560ff1690602001909291908035906020019064010000000081111561045c57600080fd5b82018360208201111561046e57600080fd5b8035906020019184600183028401116401000000008311171561049057600080fd5b91908080601f016020809104026020016040519081016040528093929190818152602001838380828437600081840152601f19601f820116905080830192505050505050509192919290505050611554565b005b3480156104f057600080fd5b506104f9611979565b6040518080602001828103825283818151815260200191508051906020019080838360005b8381101561053957808201518184015260208101905061051e565b50505050905090810190601f1680156105665780820380516001836020036101000a031916815260200191505b509250505060405180910390f35b34801561058057600080fd5b5061063a6004803603602081101561059757600080fd5b81019080803590602001906401000000008111156105b457600080fd5b8201836020820111156105c657600080fd5b803590602001918460018302840111640100000000831117156105e857600080fd5b91908080601f016020809104026020016040519081016040528093929190818152602001838380828437600081840152601f19601f820116905080830192505050505050509192919290505050611a17565b005b34801561064857600080fd5b506106856004803603604081101561065f57600080fd5b81019080803563ffffffff16906020019092919080359060200190929190505050611a31565b6040518082815260200191505060405180910390f35b3480156106a757600080fd5b5061076e600480360360408110156106be57600080fd5b81019080803560ff169060200190929190803590602001906401000000008111156106e857600080fd5b8201836020820111156106fa57600080fd5b8035906020019184600183028401116401000000008311171561071c57600080fd5b91908080601f016020809104026020016040519081016040528093929190818152602001838380828437600081840152601f19601f820116905080830192505050505050509192919290505050611f7c565b6040518082815260200191505060405180910390f35b34801561079057600080fd5b5061085b600480360360608110156107a757600080fd5b81019080803590602001906401000000008111156107c457600080fd5b8201836020820111156107d657600080fd5b803590602001918460208302840111640100000000831117156107f857600080fd5b919080806020026020016040519081016040528093929190818152602001838360200280828437600081840152601f19601f820116905080830192505050505050509192919290803590602001909291908035906020019092919050505061209f565b604051808215151515815260200191505060405180910390f35b34801561088157600080fd5b506108b46004803603602081101561089857600080fd5b81019080803563ffffffff16906020019092919050505061215c565b604051808763ffffffff1663ffffffff168152602001806020018660ff1660ff1681526020018581526020018060200180602001848103845289818151815260200191508051906020019060200280838360005b83811015610923578082015181840152602081019050610908565b50505050905001848103835286818151815260200191508051906020019080838360005b83811015610962578082015181840152602081019050610947565b50505050905090810190601f16801561098f5780820380516001836020036101000a031916815260200191505b50848103825285818151815260200191508051906020019080838360005b838110156109c85780820151818401526020810190506109ad565b50505050905090810190601f1680156109f55780820380516001836020036101000a031916815260200191505b50995050505050505050505060405180910390f35b348015610a1657600080fd5b50610b6160048036036040811015610a2d57600080fd5b8101908080359060200190640100000000811115610a4a57600080fd5b820183602082011115610a5c57600080fd5b80359060200191846020830284011164010000000083111715610a7e57600080fd5b919080806020026020016040519081016040528093929190818152602001838360200280828437600081840152601f19601f82011690508083019250505050505050919291929080359060200190640100000000811115610ade57600080fd5b820183602082011115610af057600080fd5b80359060200191846020830284011164010000000083111715610b1257600080fd5b919080806020026020016040519081016040528093929190818152602001838360200280828437600081840152601f19601f820116905080830192505050505050509192919290505050612435565b604051808215151515815260200191505060405180910390f35b610c5160048036036060811015610b9157600080fd5b81019080803563ffffffff169060200190929190803560ff16906020019092919080359060200190640100000000811115610bcb57600080fd5b820183602082011115610bdd57600080fd5b80359060200191846001830284011164010000000083111715610bff57600080fd5b91908080601f016020809104026020016040519081016040528093929190818152602001838380828437600081840152601f19601f82011690508083019250505050505050919291929050505061243d565b005b348015610c5f57600080fd5b50610c9260048036036020811015610c7657600080fd5b81019080803563ffffffff1690602001909291905050506128bf565b005b348015610ca057600080fd5b50610ce060048036036040811015610cb757600080fd5b81019080803563ffffffff169060200190929190803560ff1690602001909291905050506128c4565b005b348015610cee57600080fd5b50610e4360048036036060811015610d0557600080fd5b810190808035906020019092919080359060200190640100000000811115610d2c57600080fd5b820183602082011115610d3e57600080fd5b80359060200191846020830284011164010000000083111715610d6057600080fd5b919080806020026020016040519081016040528093929190818152602001838360200280828437600081840152601f19601f82011690508083019250505050505050919291929080359060200190640100000000811115610dc057600080fd5b820183602082011115610dd257600080fd5b80359060200191846020830284011164010000000083111715610df457600080fd5b919080806020026020016040519081016040528093929190818152602001838360200280828437600081840152601f19601f8201169050808301925050505050505091929192905050506128c9565b005b348015610e5157600080fd5b50610e5a6128ce565b6040518080602001828103825283818151815260200191508051906020019060200280838360005b83811015610e9d578082015181840152602081019050610e82565b505050509050019250505060405180910390f35b60006060610ebd612952565b600080610ec8612974565b600160008863ffffffff1663ffffffff16815260200190815260200160002060040160009054906101000a900463ffffffff16600160008963ffffffff1663ffffffff168152602001908152602001600020600101600160008a63ffffffff1663ffffffff168152602001908152602001600020600701600160008b63ffffffff1663ffffffff16815260200190815260200160002060020160009054906101000a900460ff16600160008c63ffffffff1663ffffffff16815260200190815260200160002060030154600160008d63ffffffff1663ffffffff1681526020019081526020016000206005018480548060200260200160405190810160405280929190818152602001828054801561102557602002820191906000526020600020906000905b82829054906101000a900460ff1660ff1681526020019060010190602082600001049283019260010382029150808411610fee5790505b5050505050945083600280602002604051908101604052809291908260028015611064576020028201915b815481526020019060010190808311611050575b50505050509350806002806020026040519081016040528092919082600280156110d9576020028201915b8160009054906101000a900473ffffffffffffffffffffffffffffffffffffffff1673ffffffffffffffffffffffffffffffffffffffff168152602001906001019080831161108f575b5050505050905095509550955095509550955091939550919395565b600080600160008463ffffffff1663ffffffff168152602001908152602001600020600501600060028110151561112857fe5b0160009054906101000a900473ffffffffffffffffffffffffffffffffffffffff16600160008563ffffffff1663ffffffff168152602001908152602001600020600501600160028110151561117a57fe5b0160009054906101000a900473ffffffffffffffffffffffffffffffffffffffff1691509150915091565b6000600260009054906101000a900463ffffffff1663ffffffff166001600260009054906101000a900463ffffffff160163ffffffff161115156111e857600080fd5b60008054905060016000600260009054906101000a900463ffffffff1663ffffffff1663ffffffff16815260200190815260200160002060000160006101000a81548163ffffffff021916908363ffffffff1602179055508260016000600260009054906101000a900463ffffffff1663ffffffff1663ffffffff168152602001908152602001600020600e01819055503460016000600260009054906101000a900463ffffffff1663ffffffff1663ffffffff168152602001908152602001600020600301819055508160016000600260009054906101000a900463ffffffff1663ffffffff1663ffffffff168152602001908152602001600020600a0160006002811015156112f557fe5b019080519060200190611309929190612996565b503360016000600260009054906101000a900463ffffffff1663ffffffff1663ffffffff168152602001908152602001600020600501600060028110151561134d57fe5b0160006101000a81548173ffffffffffffffffffffffffffffffffffffffff021916908373ffffffffffffffffffffffffffffffffffffffff1602179055504260016000600260009054906101000a900463ffffffff1663ffffffff1663ffffffff168152602001908152602001600020600c0181905550600260009054906101000a900463ffffffff1660016000600260009054906101000a900463ffffffff1663ffffffff1663ffffffff16815260200190815260200160002060040160006101000a81548163ffffffff021916908363ffffffff1602179055506000600260009054906101000a900463ffffffff16908060018154018082558091505090600182039060005260206000209060089182820401919006600402909192909190916101000a81548163ffffffff021916908363ffffffff16021790555050600260009054906101000a900463ffffffff169050600260009054906101000a900463ffffffff1663ffffffff167fe086303ca1b48642b0b5ba69da2571f5e80c0316d829fef02a512f986d2dd97d60405160405180910390a26002600081819054906101000a900463ffffffff168092919060010191906101000a81548163ffffffff021916908363ffffffff1602179055505092915050565b6000600160008363ffffffff1663ffffffff168152602001908152602001600020600c01549050919050565b600260009054906101000a900463ffffffff1663ffffffff168363ffffffff1610151561158057600080fd5b3373ffffffffffffffffffffffffffffffffffffffff16600160008563ffffffff1663ffffffff16815260200190815260200160002060050160006002811015156115c757fe5b0160009054906101000a900473ffffffffffffffffffffffffffffffffffffffff1673ffffffffffffffffffffffffffffffffffffffff1614151561160b57600080fd5b600073ffffffffffffffffffffffffffffffffffffffff16600160008563ffffffff1663ffffffff168152602001908152602001600020600501600160028110151561165357fe5b0160009054906101000a900473ffffffffffffffffffffffffffffffffffffffff1673ffffffffffffffffffffffffffffffffffffffff161415151561169857600080fd5b6000600160008563ffffffff1663ffffffff16815260200190815260200160002060020160009054906101000a900460ff1660ff161415156116d957600080fd5b60006116e58383611f7c565b9050600160008563ffffffff1663ffffffff168152602001908152602001600020600e01548114151561183957600c600160008663ffffffff1663ffffffff16815260200190815260200160002060020160006101000a81548160ff021916908360ff1602179055503373ffffffffffffffffffffffffffffffffffffffff168463ffffffff167f429f8719638cba0a0c2c2f5abdaed73702d21228925bbda0ac0a575bbfed444b60405160405180910390a3600160008563ffffffff1663ffffffff16815260200190815260200160002060050160016002811015156117c857fe5b0160009054906101000a900473ffffffffffffffffffffffffffffffffffffffff1673ffffffffffffffffffffffffffffffffffffffff168463ffffffff167f429f8719638cba0a0c2c2f5abdaed73702d21228925bbda0ac0a575bbfed444b60405160405180910390a350611974565b42600160008663ffffffff1663ffffffff168152602001908152602001600020600c01819055506005600160008663ffffffff1663ffffffff16815260200190815260200160002060020160006101000a81548160ff021916908360ff16021790555082600160008663ffffffff1663ffffffff168152602001908152602001600020600f0160016101000a81548160ff021916908360ff160217905550600160008563ffffffff1663ffffffff168152602001908152602001600020600501600160028110151561190757fe5b0160009054906101000a900473ffffffffffffffffffffffffffffffffffffffff1673ffffffffffffffffffffffffffffffffffffffff168463ffffffff167f8f2cb99bc5461a7abee637666a4af889ad4fc6e24dbfd0e218c1305a6379bf7a60405160405180910390a3505b505050565b60038054600181600116156101000203166002900480601f016020809104026020016040519081016040528092919081815260200182805460018160011615610100020316600290048015611a0f5780601f106119e457610100808354040283529160200191611a0f565b820191906000526020600020905b8154815290600101906020018083116119f257829003601f168201915b505050505081565b8060039080519060200190611a2d929190612996565b5050565b6000600160008463ffffffff1663ffffffff1681526020019081526020016000206005016000600281101515611a6357fe5b0160009054906101000a900473ffffffffffffffffffffffffffffffffffffffff1673ffffffffffffffffffffffffffffffffffffffff163373ffffffffffffffffffffffffffffffffffffffff161480611b3a5750600160008463ffffffff1663ffffffff1681526020019081526020016000206005016001600281101515611ae957fe5b0160009054906101000a900473ffffffffffffffffffffffffffffffffffffffff1673ffffffffffffffffffffffffffffffffffffffff163373ffffffffffffffffffffffffffffffffffffffff16145b1515611b4557600080fd5b6005600160008563ffffffff1663ffffffff16815260200190815260200160002060020160009054906101000a900460ff1660ff16141515611b8657600080fd5b6000829050600160008563ffffffff1663ffffffff1681526020019081526020016000206005016000600281101515611bbb57fe5b0160009054906101000a900473ffffffffffffffffffffffffffffffffffffffff1673ffffffffffffffffffffffffffffffffffffffff163373ffffffffffffffffffffffffffffffffffffffff161415611c4b5782600160008663ffffffff1663ffffffff1681526020019081526020016000206007016000600281101515611c4157fe5b0181905550611c82565b82600160008663ffffffff1663ffffffff1681526020019081526020016000206007016001600281101515611c7c57fe5b01819055505b6000600102600160008663ffffffff1663ffffffff1681526020019081526020016000206007016000600281101515611cb757fe5b015414158015611cfc57506000600102600160008663ffffffff1663ffffffff1681526020019081526020016000206007016001600281101515611cf757fe5b015414155b15611f7257600060018060008763ffffffff1663ffffffff168152602001908152602001600020600f0160009054906101000a900460ff16600160008863ffffffff1663ffffffff168152602001908152602001600020600f0160019054906101000a900460ff16181660ff161415611e715760018060008663ffffffff1663ffffffff16815260200190815260200160002060020160006101000a81548160ff021916908360ff16021790555060018060008663ffffffff1663ffffffff16815260200190815260200160002060090181905550600160008563ffffffff1663ffffffff1681526020019081526020016000206005016001600281101515611e0157fe5b0160009054906101000a900473ffffffffffffffffffffffffffffffffffffffff1673ffffffffffffffffffffffffffffffffffffffff168463ffffffff167f6d8a1d2dfca1665cabe339d00b017fc53268dbd538c20c3cefc2ce4076ff928a60405160405180910390a3611f71565b6002600160008663ffffffff1663ffffffff16815260200190815260200160002060020160006101000a81548160ff021916908360ff1602179055506002600160008663ffffffff1663ffffffff16815260200190815260200160002060090181905550600160008563ffffffff1663ffffffff1681526020019081526020016000206005016001600281101515611f0557fe5b0160009054906101000a900473ffffffffffffffffffffffffffffffffffffffff1673ffffffffffffffffffffffffffffffffffffffff168463ffffffff167f6d8a1d2dfca1665cabe339d00b017fc53268dbd538c20c3cefc2ce4076ff928a60405160405180910390a35b5b8091505092915050565b600073__LibString_____________________________636474c5b884846040518363ffffffff167c0100000000000000000000000000000000000000000000000000000000028152600401808360ff1660ff16815260200180602001828103825283818151815260200191508051906020019080838360005b83811015612011578082015181840152602081019050611ff6565b50505050905090810190601f16801561203e5780820380516001836020036101000a031916815260200191505b50935050505060206040518083038186803b15801561205c57600080fd5b505af4158015612070573d6000803e3d6000fd5b505050506040513d602081101561208657600080fd5b8101908080519060200190929190505050905092915050565b60008082905060008090505b855181101561214e57600086828151811015156120c457fe5b9060200190602002015190508083101561210e5782816040516020018083815260200182815260200192505050604051602081830303815290604052805190602001209250612140565b808360405160200180838152602001828152602001925050506040516020818303038152906040528051906020012092505b5080806001019150506120ab565b508381149150509392505050565b60006060600080606080600160008863ffffffff1663ffffffff16815260200190815260200160002060040160009054906101000a900463ffffffff16600160008963ffffffff1663ffffffff168152602001908152602001600020600101600160008a63ffffffff1663ffffffff16815260200190815260200160002060020160009054906101000a900460ff16600160008b63ffffffff1663ffffffff16815260200190815260200160002060030154600160008c63ffffffff1663ffffffff168152602001908152602001600020600a01600060028110151561223e57fe5b01600160008d63ffffffff1663ffffffff168152602001908152602001600020600a01600160028110151561226f57fe5b01848054806020026020016040519081016040528092919081815260200182805480156122e157602002820191906000526020600020906000905b82829054906101000a900460ff1660ff16815260200190600101906020826000010492830192600103820291508084116122aa5790505b50505050509450818054600181600116156101000203166002900480601f01602080910402602001604051908101604052809291908181526020018280546001816001161561010002031660029004801561237d5780601f106123525761010080835404028352916020019161237d565b820191906000526020600020905b81548152906001019060200180831161236057829003601f168201915b50505050509150808054600181600116156101000203166002900480601f0160208091040260200160405190810160405280929190818152602001828054600181600116156101000203166002900480156124195780601f106123ee57610100808354040283529160200191612419565b820191906000526020600020905b8154815290600101906020018083116123fc57829003601f168201915b5050505050905095509550955095509550955091939550919395565b600092915050565b600260009054906101000a900463ffffffff1663ffffffff168363ffffffff1610151561246957600080fd5b600073ffffffffffffffffffffffffffffffffffffffff16600160008563ffffffff1663ffffffff16815260200190815260200160002060050160006002811015156124b157fe5b0160009054906101000a900473ffffffffffffffffffffffffffffffffffffffff1673ffffffffffffffffffffffffffffffffffffffff16141515156124f657600080fd5b600160008463ffffffff1663ffffffff168152602001908152602001600020600301543414151561252657600080fd5b600073ffffffffffffffffffffffffffffffffffffffff16600160008563ffffffff1663ffffffff168152602001908152602001600020600501600160028110151561256e57fe5b0160009054906101000a900473ffffffffffffffffffffffffffffffffffffffff1673ffffffffffffffffffffffffffffffffffffffff161415156125b257600080fd5b6000600160008563ffffffff1663ffffffff16815260200190815260200160002060020160009054906101000a900460ff1660ff161415156125f357600080fd5b81600160008563ffffffff1663ffffffff168152602001908152602001600020600f0160006101000a81548160ff021916908360ff16021790555080600160008563ffffffff1663ffffffff168152602001908152602001600020600a01600160028110151561265f57fe5b019080519060200190612673929190612996565b5033600160008563ffffffff1663ffffffff16815260200190815260200160002060050160016002811015156126a557fe5b0160006101000a81548173ffffffffffffffffffffffffffffffffffffffff021916908373ffffffffffffffffffffffffffffffffffffffff16021790555042600160008563ffffffff1663ffffffff168152602001908152602001600020600c0181905550600160008463ffffffff1663ffffffff168152602001908152602001600020600501600060028110151561273b57fe5b0160009054906101000a900473ffffffffffffffffffffffffffffffffffffffff1673ffffffffffffffffffffffffffffffffffffffff168363ffffffff167fefe144453900c4d0cd4aef4f468771772ebc548b1253de88ff1a1291b7a5785060405160405180910390a36000600160008563ffffffff1663ffffffff16815260200190815260200160002060000160009054906101000a900463ffffffff16905060006001600080549050038154811015156127f457fe5b90600052602060002090600891828204019190066004029054906101000a900463ffffffff1660008263ffffffff1681548110151561282f57fe5b90600052602060002090600891828204019190066004026101000a81548163ffffffff021916908363ffffffff16021790555080600160008663ffffffff1663ffffffff16815260200190815260200160002060000160006101000a81548163ffffffff021916908363ffffffff16021790555060008054809190600190036128b89190612a16565b5050505050565b600080fd5b600080fd5b505050565b6060600080548060200260200160405190810160405280929190818152602001828054801561294857602002820191906000526020600020906000905b82829054906101000a900463ffffffff1663ffffffff168152602001906004019060208260030104928301926001038202915080841161290b5790505b5050505050905090565b6040805190810160405280600290602082028038833980820191505090505090565b6040805190810160405280600290602082028038833980820191505090505090565b828054600181600116156101000203166002900490600052602060002090601f016020900481019282601f106129d757805160ff1916838001178555612a05565b82800160010185558215612a05579182015b82811115612a045782518255916020019190600101906129e9565b5b509050612a129190612a50565b5090565b815481835581811115612a4b576007016008900481600701600890048360005260206000209182019101612a4a9190612a50565b5b505050565b612a7291905b80821115612a6e576000816000905550600101612a56565b5090565b9056fea165627a7a72305820172b0afe19f0eb5d9f41667e6b11094cc5f3a7ba599a6e088142797afdb553cf0029",
  "source": "pragma solidity ^0.5.0;\n\nimport \"./LibString.sol\";\n\ncontract Battleships {\n\n\t// Events\n\n    event GameCreated(uint32 indexed gameIdx);\n    event GameAccepted(uint32 indexed gameIdx, address indexed opponent);\n    event GameConfirmed(uint32 indexed gameIdx, address indexed opponent);\n    event GameStarted(uint32 indexed gameIdx, address indexed opponent);\n    event PositionMarked(uint32 indexed gameIdx, address indexed opponent);\n    event GameEnded(uint32 indexed gameIdx, address indexed opponent);\n\n   \n    \n    \n\n    function getOpenGames() public view returns (uint32[] memory){\n        return openGames;\n    }\n\n    function getGameInfo(uint32 gameIdx) public view returns (uint32 gameIndex,uint8[] memory cells, uint8 status, uint amount, string memory nick1, string memory nick2) {\n        return (\n        \tgamesData[gameIdx].gameIndex,\n            gamesData[gameIdx].cells,\n            gamesData[gameIdx].status,\n            gamesData[gameIdx].amount,\n            gamesData[gameIdx].nicks[0],\n            gamesData[gameIdx].nicks[1]\n        );\n    }\n\n    function getGameTimestamp(uint32 gameIdx) public view \n    returns (uint lastTransaction) {\n        return (gamesData[gameIdx].lastTransaction);\n    }\n\n    function getGamePlayers(uint32 gameIdx) public view \n    returns (address player1, address player2) {\n        return (\n            gamesData[gameIdx].players[0],\n            gamesData[gameIdx].players[1]\n        );\n    }\n\n    function createGame(bytes32 randomNumberHash, string memory nick) public payable returns (uint32 gameIdx) {\n        require(nextGameIdx + 1 > nextGameIdx);\n        gamesData[nextGameIdx].openListIndex = uint32(openGames.length);\n        gamesData[nextGameIdx].creatorHash = randomNumberHash;\n        gamesData[nextGameIdx].amount = msg.value;\n        gamesData[nextGameIdx].nicks[0] = nick;\n        gamesData[nextGameIdx].players[0] = msg.sender;\n        gamesData[nextGameIdx].lastTransaction = now;\n        gamesData[nextGameIdx].gameIndex = nextGameIdx;\n        openGames.push(nextGameIdx);\n\n        gameIdx = nextGameIdx;\n        emit GameCreated(nextGameIdx);\n        nextGameIdx++;\n    }\n\n    \n    function acceptGame(uint32 gameIdx, uint8 randomNumber, string memory nick) public payable {\n        require(gameIdx < nextGameIdx);\n        require(gamesData[gameIdx].players[0] != address(0x0));\n        require(msg.value == gamesData[gameIdx].amount);\n        require(gamesData[gameIdx].players[1] == address(0x0));\n        require(gamesData[gameIdx].status == 0);\n\n        gamesData[gameIdx].guestRandomNumber = randomNumber;\n        gamesData[gameIdx].nicks[1] = nick;\n        gamesData[gameIdx].players[1] = msg.sender;\n        gamesData[gameIdx].lastTransaction = now;\n\n        emit GameAccepted(gameIdx, gamesData[gameIdx].players[0]);\n\n        // Remove from the available list (unordered)\n        uint32 idxToDelete = uint32(gamesData[gameIdx].openListIndex);\n        openGames[idxToDelete] = openGames[openGames.length - 1];\n        gamesData[gameIdx].openListIndex = idxToDelete;\n        openGames.length--;\n    }\n\n   \n\n\n    function markPosition(uint32 gameIdx, uint8 cell) public {\n        revert();\n    }\n\n    function withdraw(uint32 gameIdx) public {\n        revert();\n    }\n\n    // PUBLIC HELPER FUNCTIONS\n    \n    function saltedHash(uint8 randomNumber, string memory salt) public pure returns (bytes32) {\n        return LibString.saltedHash(randomNumber, salt);\n    }\n\n    // DEFAULT\n    \n    function () external payable {\n        revert();\n    }\n\n    \n\n    struct Game{\n        uint32 openListIndex;\n        uint8[] cells;\n        uint8 status;\n        uint amount;\n        uint32 gameIndex;\n\n        address[2] players;\n        bytes32[2] merkleRoots;\n        uint startingPlayer;\n        string[2] nicks;\n        uint lastTransaction;\n        bool[2] withdrawn;\n        bytes32 creatorHash;\n        uint8 guestRandomNumber;\n        uint8 creatorRandomNumber;\n    }\n\n    uint32[] openGames;\n    mapping(uint32 => Game) gamesData;\n    uint32 nextGameIdx;\n\n\n    string public myString = \"Hello World\";\n\n    function set(string memory x) public {\n        myString = x;\n    }\n\n    // Check Merkle Tree proof\n    function checkProof(bytes32[] memory proof, bytes32 root, bytes32 leaf) pure public returns (bool) {\n        bytes32 computedHash = leaf;\n\n        for (uint256 i = 0; i < proof.length; i++) {\n            bytes32 proofElement = proof[i];\n\n            if (computedHash < proofElement) {\n                // Hash(current computed hash + current element of the proof)\n                computedHash = keccak256(abi.encodePacked(computedHash, proofElement));\n            } else {\n                // Hash(current element of the proof + current computed hash)\n                computedHash = keccak256(abi.encodePacked(proofElement, computedHash));\n            }\n        }\n\n        // Check if the computed hash (root) is equal to the provided root\n        return computedHash == root;\n    }\n\n    function submitMerkleRoot(uint32 gameIdx, bytes32 root) public returns(bytes32){\n        require(msg.sender == gamesData[gameIdx].players[0] || msg.sender == gamesData[gameIdx].players[1]);\n        require(gamesData[gameIdx].status == 5);\n\n        bytes32 root1 = root;\n        \n        \n        if(msg.sender == gamesData[gameIdx].players[0])\n            gamesData[gameIdx].merkleRoots[0] = root;\n            else\n            gamesData[gameIdx].merkleRoots[1] = root;\n\n        if(gamesData[gameIdx].merkleRoots[0] != 0x0 && gamesData[gameIdx].merkleRoots[1] != 0x0){\n             //Define the starting player\n            if((gamesData[gameIdx].creatorRandomNumber ^ gamesData[gameIdx].guestRandomNumber) & 0x01 == 0){\n                gamesData[gameIdx].status = 1;\n                gamesData[gameIdx].startingPlayer = 1;\n                emit GameStarted(gameIdx, gamesData[gameIdx].players[1]);\n        } \n        else {\n                gamesData[gameIdx].status = 2;\n                gamesData[gameIdx].startingPlayer = 2;\n                emit GameStarted(gameIdx, gamesData[gameIdx].players[1]);\n        }\n        }\n        return root1;\n    }\n\n    function getTestGameInfo(uint32 gameIdx) public view returns (uint32 gameIndex,uint8[] memory cells,bytes32[2] memory merkleRoots, uint8 status, uint amount, address[2] memory players) {\n        return (\n        \tgamesData[gameIdx].gameIndex,\n            gamesData[gameIdx].cells,\n            gamesData[gameIdx].merkleRoots,\n            gamesData[gameIdx].status,\n            gamesData[gameIdx].amount,\n            gamesData[gameIdx].players\n           \n            \n        );\n    }\n\n\n\n    function confirmGame(uint32 gameIdx, uint8 revealedRandomNumber, string memory revealedSalt) public {\n        require(gameIdx < nextGameIdx);\n        require(gamesData[gameIdx].players[0] == msg.sender);\n        require(gamesData[gameIdx].players[1] != address(0x0));\n        require(gamesData[gameIdx].status == 0);\n\n        bytes32 computedHash = saltedHash(revealedRandomNumber, revealedSalt);\n        if(computedHash != gamesData[gameIdx].creatorHash){\n            gamesData[gameIdx].status = 12;\n            emit GameEnded(gameIdx, msg.sender);\n            emit GameEnded(gameIdx, gamesData[gameIdx].players[1]);\n            return;\n        }\n\n        gamesData[gameIdx].lastTransaction = now;\n\n        gamesData[gameIdx].status = 5;\n\n\n        gamesData[gameIdx].creatorRandomNumber = revealedRandomNumber;\n       \n        emit GameConfirmed(gameIdx, gamesData[gameIdx].players[1]);\n       \n    }\n\n    function validateDesk(uint8[] memory rows, uint8[] memory cols) public returns(bool){\n        \n    }\n\n    function playerReady(uint gameIdx, uint8[] memory rows, uint8[] memory cols) public {\n    \t\n    }\n}\n\n\t\n\n",
  "sourcePath": "/home/maks/drizzle-react-tutorial/blockchain/contracts/Battleships.sol",
  "compiler": {
    "name": "solc",
    "version": "0.5.0+commit.1d4f565a.Emscripten.clang"
  },
  "schemaVersion": "3.0.2",
  "updatedAt": "2019-03-04T02:16:35.381Z",
  "devdoc": {
    "methods": {}
  },
  "userdoc": {
    "methods": {}
  }
}