{
  "contractName": "LibString",
  "abi": [
    {
      "constant": true,
      "inputs": [
        {
          "name": "randomNumber",
          "type": "uint8"
        },
        {
          "name": "salt",
          "type": "string"
        }
      ],
      "name": "saltedHash",
      "outputs": [
        {
          "name": "",
          "type": "bytes32"
        }
      ],
      "payable": false,
      "stateMutability": "pure",
      "type": "function",
      "signature": "0x6474c5b8"
    }
  ],
  "bytecode": "0x6103f3610030600b82828239805160001a6073146000811461002057610022565bfe5b5030600052607381538281f3fe7300000000000000000000000000000000000000003014608060405260043610610058576000357c0100000000000000000000000000000000000000000000000000000000900463ffffffff1680636474c5b81461005d575b600080fd5b6101236004803603604081101561007357600080fd5b81019080803560ff1690602001909291908035906020019064010000000081111561009d57600080fd5b8201836020820111156100af57600080fd5b803590602001918460018302840111640100000000831117156100d157600080fd5b91908080601f016020809104026020016040519081016040528093929190818152602001838380828437600081840152601f19601f820116905080830192505050505050509192919290505050610139565b6040518082815260200191505060405180910390f35b6000606060016040519080825280601f01601f1916602001820160405280156101715781602001600182028038833980820191505090505b509050837f0100000000000000000000000000000000000000000000000000000000000000028160008151811015156101a657fe5b9060200101907effffffffffffffffffffffffffffffffffffffffffffffffffffffffffffff1916908160001a9053506101e081846101f0565b8051906020012091505092915050565b6060808390506060839050606081518351016040519080825280601f01601f1916602001820160405280156102345781602001600182028038833980820191505090505b5090506060819050600080905060008090505b85518110156102fc57858181518110151561025e57fe5b9060200101517f010000000000000000000000000000000000000000000000000000000000000090047f01000000000000000000000000000000000000000000000000000000000000000283838151811015156102b757fe5b9060200101907effffffffffffffffffffffffffffffffffffffffffffffffffffffffffffff1916908160001a90535081806001019250508080600101915050610247565b5060008090505b84518110156103b857848181518110151561031a57fe5b9060200101517f010000000000000000000000000000000000000000000000000000000000000090047f010000000000000000000000000000000000000000000000000000000000000002838381518110151561037357fe5b9060200101907effffffffffffffffffffffffffffffffffffffffffffffffffffffffffffff1916908160001a90535081806001019250508080600101915050610303565b5081955050505050509291505056fea165627a7a723058205195e45e3d8edf2a3c990aaf81041e63d9b5d1914e06fb26ed2b704dcdc5f9700029",
  "source": "// contracts/LibString.sol\npragma solidity ^0.5.0;\n\nlibrary LibString {\n    function saltedHash(uint8 randomNumber, string memory salt) public pure returns (bytes32) {\n        bytes memory bNum = new bytes(1);\n        bNum[0] = byte(randomNumber);\n\n        return keccak256(bytes(concat(string(bNum), salt)));\n    }\n    \n    function concat(string memory first, string memory second) internal pure returns (string memory){\n        bytes memory bFirst = bytes(first);\n        bytes memory bSecond = bytes(second);\n        string memory memStr = new string(bFirst.length + bSecond.length);\n        bytes memory result = bytes(memStr);\n        uint k = 0;\n        for (uint i = 0; i < bFirst.length; i++) {\n            result[k] = bFirst[i];\n            k++;\n        }\n        for (uint i = 0; i < bSecond.length; i++) {\n            result[k] = bSecond[i];\n            k++;\n        }\n        return string(result);\n    }\n}",
  "sourcePath": "/home/maks/drizzle-react-tutorial/blockchain/contracts/LibString.sol",
  "compiler": {
    "name": "solc",
    "version": "0.5.0+commit.1d4f565a.Emscripten.clang"
  },
  "schemaVersion": "3.0.2",
  "updatedAt": "2019-03-03T14:15:56.565Z",
  "devdoc": {
    "methods": {}
  },
  "userdoc": {
    "methods": {}
  }
}